:100000000C946A050C948F1A0C94681A0C94510F76
:100010000C94510F0C94510F0C9492050C94920572
:100020000C9492050C9492050C9492050C949205F4
:100030000C9492050C9492050C9492050C949205E4
:100040000C9458270C9492050C943A1B0C94141B96
:100050000C9492050C9492050C9492050C949205C4
:100060000C94230E0C9492052B11311136116A1148
:100070003B113F11431172114A1151115511571182
:100080005B11611168116A1172112D21B921602172
:100090004C2116218B21A8219121BE21B52105A833
:1000A0004CCDB2D44EB93836A9020C50B9918688DD
:1000B000083CA6AAAA2ABE000000803F0100020058
:1000C0000400080010002000400080008100420071
:1000D00024001800240042008100AA005500C3003B
:1000E0003000000000001FF800000000E0070000E2
:1000F00000030000C000000C0E70300000307E7E57
:100100000C000041FE7F82000087FE7FE100010FAE
:10011000FE7FF080023FFE7FFC40047FFE7FFE20DA
:10012000087FFE7FFF1008FFFE71C71010000E61F0
:10013000C70810000661C70820000661C70427FF32
:100140008671C70440000E71C70240000E71C712CD
:1001500048000E71C71288FFFE71FFF288FFFE7023
:10016000001188FFFE70001188FFFE60001188FFFB
:10017000FE307FF98FFFFE7FFFF98FFFFA1FFFF937
:100180008FFFFC3FFFF98FFFF8FFFFF18FFFFE5F4E
:10019000FFF24FFFFE3FFFF247FFFC3FFFE247FF4A
:1001A000C00000222200000000442200000000C421
:1001B000118000000F8811C000007F8808F0000047
:1001C000FF10087E0001FE10043FF803FC20021F10
:1001D000FC03F840010FFC03F0800083FC03C10026
:1001E0000040FC018200003038000C00000C0000D0
:1001F000300000030000C0000000F00F000000000D
:100200000FF0000000001FF800000000E0070000F1
:1002100000030000C000000C000030100832000095
:100220002C200441000042400280800081800100B7
:100230004001008002003FFE00400400000000205A
:10024000080000000010080000000010100000006E
:1002500000081001000200082002810300042004AD
:100260004104C0044008210820024010110010027F
:10027000402007C00802804009200602808011103B
:1002800001019F00210800F990004104000990003D
:10029000410400099007FFFFC009900041040009D4
:1002A0009000410400099000210800099E001110EF
:1002B000007A410009200082408007C001024040CE
:1002C00001000202202021080C042010410418041F
:1002D000100C8102200810030101400808010000F1
:1002E000801008000000001004000000002002013F
:1002F000FFFF004001020001008001840000C140B6
:10030000024800003220043000000C10080C0000ED
:10031000300000030000C0000000F00F00000000EB
:100320000FF000000000000003FF00000180000348
:10033000000001800001000003C0000100007FFEFA
:1003400000010001C187800100070180E001000C6D
:100350003FFC30010030E18F180300638181C4014C
:1003600000C600006200008C0000310001181FF080
:1003700019800330701C0CC00260C00304400641A9
:100380008001826004C30000C32004820000412079
:100390000D8400006130098403C02190090C0E60B7
:1003A00030900908081010900908181810907FC89C
:1003B000101813FE7FC8101813FE090818101090AB
:1003C00009080C303090090C07E021900984018065
:1003D00021B00C860000613004820000C32004C1FB
:1003E000000082600661800306400220600604C0AF
:1003F00001303C7C0880019807E0198000CC0000A7
:10040000730000670000C6008031C1838C01801832
:10041000799E1801800E0FF0700180038181C00168
:100420008000F18F000180001FF800018000018032
:100430000001800001800001800001800003FFC0F6
:10044000000003FF07FFFFFFFFC0080000000030AF
:1004500030000000000828000000001444000000E4
:1004600000248200000000428100000000828080A1
:100470000000010280400000020180200000040111
:10048000803000000C018028000014018027FFFF4D
:10049000E401E02400002401982407E024038624DA
:1004A0000890241D81A4308C25E1806440822E01B7
:1004B000803C40823401802480812401802480811A
:1004C000240180250080A40180250080A4018025CE
:1004D000FFFFA40180250080A40180250080A401E5
:1004E0008024808124018024808124018024408212
:1004F0002401802C408234018074308C2E0183A42E
:100500000CB025E19C2403C0241DE024000024033A
:100510008027FFFFE40180240000140180280000F0
:100520000C01803000000401803FFFFFFE0180408D
:10053000000001018080000000828101FFFF8042F5
:1005400042010000802244010000801428010000C4
:10055000800C10010000801C0F01000081E000FFF2
:10056000FFFFFE0041757820627574746F6E206322
:100570006C69636B0000000000240027002A000063
:10058000000000250028002B0000000000230026AA
:100590000029000404040404040404020202020208
:1005A0000203030303030301020408102040800137
:1005B00002040810200102040810200000000800B6
:1005C000020100000304070000000000000000001A
:1005D000000000003E5B4F5B3E3E6B4F6B3E1C3E9F
:1005E0007C3E1C183C7E3C181C577D571C1C5E7FB3
:1005F0005E1C00183C1800FFE7C3E7FF0018241832
:1006000000FFE7DBE7FF30483A060E262979292666
:10061000407F050507407F05253F5A3CE73C5A7F50
:100620003E1C1C08081C1C3E7F14227F22145F5FA6
:10063000005F5F06097F017F006689956A606060E0
:10064000606094A2FFA29408047E040810207E201B
:100650001008082A1C08081C2A08081E1010101070
:100660000C1E0C1E0C30383E3830060E3E0E0600B6
:100670000000000000005F00000007000700147F7A
:10068000147F14242A7F2A122313086462364956E1
:1006900020500008070300001C2241000041221CDA
:1006A000002A1C7F1C2A08083E08080080703000C1
:1006B0000808080808000060600020100804023ED6
:1006C0005149453E00427F40007249494946214117
:1006D000494D331814127F1027454545393C4A4986
:1006E00049314121110907364949493646494929C5
:1006F0001E000014000000403400000008142241D5
:100700001414141414004122140802015909063E5D
:10071000415D594E7C1211127C7F494949363E4158
:100720004141227F4141413E7F494949417F090979
:1007300009013E414151737F0808087F00417F4114
:10074000002040413F017F081422417F404040404B
:100750007F021C027F7F0408107F3E4141413E7FA3
:10076000090909063E4151215E7F0919294626499A
:1007700049493203017F01033F4040403F1F204071
:10078000201F3F4038403F6314081463030478047B
:10079000036159494D43007F414141020408102043
:1007A000004141417F0402010204404040404000BA
:1007B0000307080020545478407F284444383844C4
:1007C000444428384444287F385454541800087E40
:1007D000090218A4A49C787F0804047800447D4092
:1007E000002040403D007F1028440000417F400031
:1007F0007C047804787C080404783844444438FC49
:100800001824241818242418FC7C080404084854CC
:1008100054542404043F44243C4040207C1C204089
:10082000201C3C4030403C44281028444C90909080
:100830007C4464544C4400083641000000770000BA
:10084000004136080002010204023C2623263C1E19
:10085000A1A161123A4040207A385454555921558B
:1008600055794122545478422155547840205455AA
:1008700079400C1E527212395555555939545454F9
:100880005939555454580000457C410002457D4279
:100890000001457C407D1211127DF0282528F07C56
:1008A000545545002054547C547C0A097F493249F0
:1008B0004949323A4444443A324A4848303A41413C
:1008C000217A3A42402078009DA0A07D3D424242DC
:1008D0003D3D4040403D3C24FF2424487E49436642
:1008E0002B2FFC2F2BFF0929F620C0887E0903201F
:1008F000545479410000447D413048484A323840E0
:1009000040227A007A0A0A727D0D19317D26292942
:100910002F28262929292630484D40203808080844
:100920000808080808382F10C8ACBA2F102834FA65
:1009300000007B000008142A142222142A140855EF
:1009400000550055AA55AA55AAFF55FF55FF0000AE
:1009500000FF00101010FF00141414FF001010FF0F
:1009600000FF1010F010F0141414FC001414F70021
:10097000FF0000FF00FF1414F404FC141417101FF0
:1009800010101F101F1414141F00101010F000007E
:1009900000001F101010101F10101010F010000099
:1009A00000FF101010101010101010FF10000000A9
:1009B000FF140000FF00FF00001F10170000FC04E0
:1009C000F414141710171414F404F40000FF00F7C3
:1009D00014141414141414F700F714141417141026
:1009E000101F101F141414F4141010F010F0000055
:1009F0001F101F0000001F14000000FC140000F076
:100A000010F01010FF10FF141414FF141010101F1A
:100A100000000000F010FFFFFFFFFFF0F0F0F0F02B
:100A2000FFFFFF0000000000FFFF0F0F0F0F0F3848
:100A300044443844FC4A4A4A347E02020606027E96
:100A4000027E0263554941633844443C04407E20A1
:100A50001E2006027E020299A5E7A5991C2A492AB2
:100A60001C4C7201724C304A4D4D30304878483041
:100A7000BC625A463D3E494949007E0101017E2A39
:100A80002A2A2A2A44445F444440514A444040446C
:100A90004A51400000FF0103E080FF000008086B9E
:100AA0006B083612362436060F090F060000181898
:100AB0000000001010003040FF0101001F01011E66
:100AC00000191D1712003C3C3C3C000000000000D7
:100AD0006F2EA22711241FBECFEFD8E0DEBFCDBFFF
:100AE00013E0A0E0B1E0E0E6F9E602C005900D9267
:100AF000A434B107D9F725E0A4E4B3E001C01D9206
:100B0000A53FB207E1F715E0C9E6D5E004C021979B
:100B1000FE010E947733C836D107C9F70E94B0277B
:100B20000C94A3340C940000682F70E040E050E077
:100B300086E00E94CD1C0E94051D62E370E080E00B
:100B400090E00C9434268EE480937C0080917A00AF
:100B5000806480937A0080917A0086FDFCCF20919A
:100B600078003091790040E050E060E078E980E181
:100B700090E00E944730CA01B9016B5F7F4F8F4FF1
:100B80009F4F2AE030E040E050E00E944730C9012A
:100B90008C52914067E070E00E9463338AE0282F16
:100BA000269FC001279F900D11240C94811D40E0C9
:100BB00050E060E070E08EE00E94CD1C0C94051DBA
:100BC000682F70E040E050E088E00E94CD1C0C945B
:100BD000051D682F70E040E050E083E00E94CD1CCE
:100BE0000C94051DCF92DF92EF92FF92CF93E0908D
:100BF0005B03F0905C0321E0E216F10409F052C0BF
:100C00000E94A1266093C1057093C2058093C3051D
:100C10009093C40510925803809156039091570306
:100C2000009719F486E090E005C08130910539F411
:100C300087E090E0909357038093560344C282303C
:100C4000910519F488E090E0F5CF8F30910529F4F3
:100C50008091540390915503EDCF9C012D503109A3
:100C600022303105B8F480915C0496E1899FE02C34
:100C70001124F12C61E070E080E090E00E944E1AB7
:100C8000C7014F96860F0E94E90564EF71E080E08E
:100C900090E0B4C1419709F016C210925C03109223
:100CA0005B0312C082E0E816F10409F0D8C180911C
:100CB0005203909153038530910559F483E090E0FD
:100CC00090935C0380935B03F0925A03E092590384
:100CD000FAC18430910529F580915B044EE150E022
:100CE00065E070E090E00E946E262091CF05309183
:100CF000D00520935B0444E6429FC001439F900DC2
:100D000011246EE170E00E946333CB010E94811DCB
:100D100080915B04CF91FF90EF90DF90CF900C9487
:100D200094058230910539F5809150034FE050E0F1
:100D300060E070E0082E000C990B0E946E268091F6
:100D4000CF05809350030E94211180915C0427E01D
:100D5000829FC0011124FC01EA5AFB4F20914D03F0
:100D6000228720914C03218730914E033387FC0169
:100D7000E15AFB4F29C083309105E1F58091500382
:100D80004FE050E060E070E0082E000C990B0E94EC
:100D90006E268091CF05809350030E94211180918F
:100DA0005C0427E0829FC0011124FC01EA5AFB4F3A
:100DB00020914D03258720914C03248730914E03C9
:100DC0003687FC01EE59FB4F818180934D034091A2
:100DD0005E0420915D04240F215060914C037091BA
:100DE0004D0380914E03CF91FF90EF90DF90CF9015
:100DF0000C94331387309105C9F581E08093CE05BB
:100E000080915D044FE150E060E070E090E00E946E
:100E10006E268091CF0580935D040E94D02320919F
:100E20005D04222389F040915E04240F2150E0915B
:100E30005C0487E0E89FF0011124EA5AFB4F6185CA
:100E4000728583850E94331380915D04811103C0F4
:100E500068E280E004C090915E0468E2890FCF915F
:100E6000FF90EF90DF90CF900C94B11286309105F7
:100E700019F581E08093CE0580915E044AE050E050
:100E800060E070E090E00E946E268091CF05809334
:100E90005E040E94D02320915E04222339F0215069
:100EA00040E060E070E08AE00E94331380915E04CD
:100EB000882371F268E2D3CF009709F0A6C01092A0
:100EC000CE0580915C0442E050E060E070E090E08C
:100ED0000E946E26C090CF05D090D005C0925C04D1
:100EE0000D2C000CEE08FF08F7FE0EC06DE284E743
:100EF00094E00E94281444275527BA014C195D0933
:100F00006E097F092AE003C02AE0B701A60184E741
:100F100094E00E94CB1A67E173E084E794E00E94BA
:100F2000B61A8091CF059091D00590934E0580938D
:100F30004D0581309105E9F00297B1F188E097E025
:100F40009093500580934F0580E293E09093520573
:100F5000809351058CE697E0909354058093530558
:100F600084EF91E0909356058093550584E89CE0CA
:100F700033C08AE595E09093500580934F0580E259
:100F800093E090935205809351058CE697E09093FF
:100F90005405809353058CE291E09093560580931D
:100FA00055058FE498E018C08EEE92E090935005BE
:100FB00080934F05909352058093510584EF91E003
:100FC00090935405809353058CEB92E090935605D3
:100FD000809355058FEF91E09093580580935705C6
:100FE00090915C0486E1989F802D11240E94DD2061
:100FF0000E94E90566E970E080E090E0CF91FF9003
:10100000EF90DF90CF900C943426019709F05BC0ED
:10101000E0915C04C7E0CE9FF0011124EA5AFB4F37
:10102000878542E050E060E070E090E00E946E262C
:10103000E0915C04CE9FF0011124EA5AFB4F8091AD
:10104000CF0587870E94EE106FEF7FEF809104013C
:10105000CF91FF90EF90DF90CF900C94CB0FE114E5
:10106000F10479F481E090E090935C0380935B035A
:1010700010925A031092590310925703109256037C
:1010800022C024E0E216F104F1F480914B0388239E
:1010900049F010924B03CF91FF90EF90DF90CF90EB
:1010A0000C94D70581E080934B0340E050E060E072
:1010B00070E08DE00E94CD1CCF91FF90EF90DF900B
:1010C000CF900C94051DCF91FF90EF90DF90CF90C3
:1010D0000895EF92FF920F931F93CF93DF930091A8
:1010E000490310914A03C6E5D4E00655144078013F
:1010F000EC0EFD1EC7010E9431306991681719F08E
:10110000C7010E94393084E0C437D80781F7DF91E6
:10111000CF911F910F91FF90EF900895CF92DF92A2
:10112000FF920F931F93CF93DF930E94EC1E88E1F1
:101130008093B800E0918404F091850482E080837C
:10114000E0918004F09181041082E0918204F0919A
:10115000830480E1808310928C04E0918804F091F4
:10116000890486E08083E0918604F0918704808181
:1011700080618083E0918604F0918704808188609B
:101180008083E0918604F091870480818068808369
:10119000E0918604F091870480818F7D808360E0F8
:1011A00080E10E94B22560E081E10E94B225209199
:1011B00046033091470380914403909145032817DB
:1011C000390731F480E290E0909345038093440323
:1011D00080914403909145039C01225E3F4F3093E0
:1011E00047032093460390934A03809349036EE19B
:1011F00073E084E794E00E94B61A8EE190E00E94CA
:101200001E1F8091490390914A030E941E1F609106
:10121000490370914A034EE150E086E594E00E9454
:101220002130C6E5D4E00AE113E06E01FF24F39417
:10123000D6019D916D01F80181918F01981769F098
:1012400064E373E084E794E00E94B61A67E173E018
:1012500084E794E00E94B61AF12CF3E00D311F07E9
:1012600039F766E574E084E794E00E94B61A67E116
:1012700073E084E794E00E94B61AF11023C08CE476
:101280008093560480E38093570485E38093580449
:1012900010925C048FE080935B0484E080935D0493
:1012A00080935E042BE634E084E18A8719861B86EE
:1012B0001D861C868E871F8627962C173D07A9F74B
:1012C0000E94690880915C04282F30E030934E051D
:1012D00020934D058130E9F08230B1F188E097E04C
:1012E0009093500580934F0580E293E090935205D0
:1012F000809351058CE697E09093540580935305B5
:1013000084EF91E0909356058093550584E89CE026
:1013100033C08AE595E09093500580934F0580E2B5
:1013200093E090935205809351058CE697E090935B
:101330005405809353058CE291E090935605809379
:1013400055058FE498E018C08EEE92E0909350051A
:1013500080934F05909352058093510584EF91E05F
:1013600090935405809353058CEB92E0909356052F
:10137000809355058FEF91E0909358058093570522
:10138000A89599E288E10FB6F894A895809360003B
:101390000FBE90936000A8958AB188668AB984B11F
:1013A0008E6284B98BB187798BB985B1817D85B91E
:1013B000E4EBF5E0E491E093C00580EA95E0FC0100
:1013C0002491E22FF0E0EE0FFF1FE158FA4F259134
:1013D00034913093BD052093BC05FC018491E82F26
:1013E000F0E0EE0FFF1FEB58FA4F85919491909328
:1013F000BF058093BE050E94C411E0915C0487E0A4
:10140000E89FF0011124E15AFB4F908182812181F4
:1014100020934D0390934C0380934E030E94C4117C
:1014200082E00E941D26BC01990F880B990B611563
:1014300071058105910511F00E94183062E08CE081
:101440000E94E12562E08BE00E94E12528EC30E07B
:10145000309395052093940588E592E09093970545
:101460008093960542EF55E05093A00540939F0569
:101470004FEB51E25093A6054093A5054EE550E28F
:101480005093A8054093A7054AE55FE15093AA054C
:101490004093A905309376052093750590937805C0
:1014A0008093770588EE9FE1909381058093800576
:1014B0008AE49FE1909383058093820581EA9FE10E
:1014C000909387058093860584E39FE19093890537
:1014D0008093880561E081E10E94E12561E080E17F
:1014E0000E94E12560E081E10E94B22560E080E198
:1014F0000E94B22580916D00806180936D00809183
:101500006B00806180936B006CE271E080E090E0A2
:101510000E9434268091590590915A05009739F020
:10152000DC01ED91FC910088F189E02D09958FE1B6
:1015300090E00E947D33EC011B821A8288EE93E0DA
:10154000A0E0B0E08C839D83AE83BF8387E992E007
:10155000998388831F8A1E8A198E188E1B8E1A8E75
:101560001D8E1C8E6E8D6E7F6D7F6E8F6695617089
:1015700081E0682788E00E94B22561E088E00E944F
:10158000E125EFEAF5E0E491E88BEBE9F5E0E491A1
:10159000F0E0EE0FFF1FE158FA4F859194919A8B7E
:1015A000898B60E087E00E94E1258E8D81FD04C07B
:1015B00061E087E00E94B22587E08C87EEEAF5E0E3
:1015C000E491ED87EAE9F5E0E491F0E0EE0FFF1F2A
:1015D000E757FA4F859194919F878E87D0935A054C
:1015E000C093590581EA91E09D8F8C8F2DEB30E0FF
:1015F0003F8B2E8B2BE931E0398F288F2CE231E0A5
:101600003B8F2A8F209168002460209368002DE68C
:1016100030E03C8B2B8B20E82D8B0197F1F7E0918C
:101620006103F0916203CE17DF07D1F0309739F0F4
:10163000A389B4899C918589809589238C938E8D0B
:101640008E7F8E8F10925F0310926003D09362039F
:10165000C0936103EB89FC8990818D89892B8083FC
:1016600068EC70E080E090E00E94342680915B049A
:10167000803148F48FE00E94940568EC70E080E0CF
:1016800090E00E9434268AE00E94E90562E573E05A
:1016900080E090E00E94342610925C0310925B037D
:1016A00083E090E090935A0380935903109257037C
:1016B000109256030E94A1266093B1057093B20563
:1016C0008093B3059093B40580915B040E949405C8
:1016D00068EE73E080E090E00E94342682E0809320
:1016E0003A058CE38093390580913B058F3F09F4DF
:1016F000BDC061E080913D050E94E12561E08091DF
:101700003F050E94E12580913F05082E000C990BB2
:10171000FC01ED56FA4FE491F0E0EE0FFF1FE158A7
:10172000FA4F259134913093460520934505FC01ED
:10173000E955FA4FE491E0934B0580913D05082E61
:10174000000C990BFC01ED56FA4FE491F0E0EE0F1E
:10175000FF1FE158FA4F25913491309348052093AB
:101760004705FC01E955FA4FE491E0934C0580915F
:10177000400581113EC061E080913B050E94E1255A
:1017800061E080913C050E94E12580913C05082E96
:10179000000C990BFC01ED56FA4FE491F0E0EE0FCE
:1017A000FF1FE158FA4F259134913093440520935F
:1017B0004305FC01E955FA4FE491E0934A05809115
:1017C0003B05082E000C990BFC01ED56FA4FE491F5
:1017D000F0E0EE0FFF1FE158FA4F2591349130935E
:1017E000420520934105FC01E955FA4FE491E0934D
:1017F000490580914005882309F43AC0CFB7F89491
:1018000080914803811127C0EDE9F5E08491E1EB77
:10181000F5E09491E82FF0E0EE0FFF1FEB58FA4F40
:10182000A591B491EC91E92321F461E08AE00E9452
:10183000B22561E08AE00E94E1258CB580618CBD13
:101840008CB580648CBD61E08DE00E94E12561E093
:101850008BE00E94E125809148038F5F80934803CD
:10186000CFBF80E58CBD81E08DBD02C00E94EC1E23
:1018700080913E0587FD1EC061E00E94E12561E088
:1018800080913E050E94B22561E070E080E090E02A
:101890000E94342660E080913E050E94B2256AE0F5
:1018A00070E080E090E00E94342661E080913E0587
:1018B0000E94B2258EEA0E94D71D85ED0E94D71D99
:1018C00080E80E94D71D88EA0E94D71D8FE20E94FF
:1018D000D71D83ED0E94D71D80E00E94D71D80E4B4
:1018E0000E94D71D8DE80E94D71D84E10E94D71D5C
:1018F00080E20E94D71D80E00E94D71D81EA0E94ED
:10190000D71D88EC0E94D71D8AED0E94D71D82E169
:101910000E94D71D81E80E94D71D8FEC0E94D71D21
:1019200089ED0E94D71D81EF0E94D71D8BED0E948B
:10193000D71D80E40E94D71D84EA0E94D71D86EA45
:101940000E94D71D8EE20E94D71D8FEA0E94D71DEC
:10195000DF91CF911F910F91FF90DF90CF900C946A
:10196000111185ED8093BC008091BC0084FDFCCFFB
:101970001092320408954091E303262F30E0240FA3
:10198000311D21323105DCF4209132042430C9F4B8
:10199000FC0180E090E0861758F43091E303219138
:1019A000DC01AD53BC4FA30FB11D2C930196F3CFB7
:1019B0008091E303680F6093E30380E0089581E082
:1019C000089582E00895089508950895E0910B0424
:1019D00080910A04E81730F4F0E0ED55FC4F808167
:1019E00090E008958FEF9FEF089590910B04809100
:1019F0000A04981750F4E92FF0E0ED55FC4F2081D0
:101A000030E09F5F90930B0402C02FEF3FEFC901BE
:101A1000089580910A0490E020910B04821B9109A3
:101A20000895CF92DF92EF92FF920F931F93CF937F
:101A3000DF937C01CB018A0120913304222389F0BA
:101A4000EB016B01C40ED51ECC15DD0569F0699163
:101A5000D701ED91FC910190F081E02DC70109952E
:101A6000F3CF642F0E94BB0CC801DF91CF911F916F
:101A70000F91FF90EF90DF90CF900895CF93DF9379
:101A80001F92CDB7DEB76983209133042223D1F0B2
:101A900020915504203240F021E030E0FC013383F6
:101AA000228380E090E015C080913404E82FF0E0BC
:101AB000EB5CFB4F998190838F5F8093340480931C
:101AC000550405C061E0CE0101960E94BB0C81E087
:101AD00090E00F90DF91CF910895209161033091B4
:101AE00062032817390781F49091600380915F03A6
:101AF000981751F0E0916003F0E0ED59FC4F8081C0
:101B0000082E000C990B08958FEF9FEF08952091F8
:101B10006103309162032817390739F48FB7F894BD
:101B200010925F03109260038FBF0895FC01848DB3
:101B3000958D009729F421E030E0338322830895C6
:101B4000A189B2893089532F50957FB7F8942C9191
:101B500025232C93FC013197F1F728E04C9160FF8D
:101B600002C0432B01C045234C93FC013197F1F790
:101B70006695215099F72C91232B2C937FBF0197C9
:101B8000F1F781E090E008952091610330916203C4
:101B90002817390771F480915F032091600390E06A
:101BA000805C9F4F821B910960E470E00E94633368
:101BB000089580E090E008952091610330916203E0
:101BC00028173907B9F49091600380915F03981743
:101BD00089F0E0916003F0E0ED59FC4F80812091A5
:101BE000600330E02F5F3F4F2F7333272093600354
:101BF00090E008958FEF9FEF0895FC0187E992E050
:101C0000918380838091610390916203E817F907C3
:101C100059F4A389B4899C918589809589238C93F3
:101C200010926203109261030895089580E090E09D
:101C30000895CF93DF93EC010E94FD0DCE01DF915B
:101C4000CF910C9415341F920F920FB60F9211245E
:101C50002F933F934F935F936F937F938F939F93B4
:101C6000AF93BF93EF93FF938091B900887F803645
:101C700009F49CC068F5883209F45BC090F48031A7
:101C800009F454C038F4882309F4F6C0883009F404
:101C90004DC0F6C0883109F44CC0803209F45DC0F3
:101CA000EFC0803409F468C048F4803309F455C0AB
:101CB000883309F0E5C080933004D8C0803509F43A
:101CC0004FC0883509F45DC0883409F0D9C0D6C04A
:101CD000883909F4C7C0A8F4883709F467C038F414
:101CE000883609F463C0803709F460C0C9C08838F9
:101CF00009F4B8C0803909F45FC0803809F0C0C069
:101D00005BC0803B09F486C038F4803A09F466C0B1
:101D1000883A09F47FC0B4C0803C09F4A7C0883C6D
:101D200009F4A4C0883B09F48AC0AAC080910D04BC
:101D300010C090912F0480912E04981770F5E091B7
:101D40002F0481E08E0F80932F04F0E0E25FFB4FC1
:101D500080818093BB0085EC86C0809330048EC068
:101D6000E0912F0481E08E0F80932F048091BB00BF
:101D7000F0E0E25FFB4F808390912F0480912E046E
:101D80006EC0E0912F0481E08E0F80932F0480912C
:101D9000BB00F0E0E25FFB4F808380913104811152
:101DA0006DC081E080930C0484EA61C083E080937D
:101DB000320410920504CFCF80910504803208F0E0
:101DC00051C0E091050481E08E0F8093050480915D
:101DD000BB00F0E0EB51FC4F8083BDCF85EC8093DE
:101DE000BC001092320480910504803230F4E091FE
:101DF0000504F0E0EB51FC4F10826091050470E0A7
:101E0000E0910604F091070485EE93E009951092A5
:101E1000050436C084E0809332041092E4031092EB
:101E2000E303E0910804F091090409958091E3032C
:101E3000811105C081E08093E3031092C303E09118
:101E4000E40381E08E0F8093E403F0E0ED53FC4F58
:101E500080818093BB009091E4038091E303981705
:101E600008F479CF85E88093BC000AC085EC8093A4
:101E7000BC001092320404C0109230040E94B10CD5
:101E8000FF91EF91BF91AF919F918F917F916F9152
:101E90005F914F913F912F910F900FBE0F901F9028
:101EA00018951F920F920FB60F9211242F933F9304
:101EB0004F935F936F937F938F939F93AF93BF9352
:101EC000EF93FF93E0916103F0916203309709F47F
:101ED00051C0968DA685B785858591FF04C09C91DC
:101EE000892329F447C09C91892309F043C0A38921
:101EF000B4899C918589809589238C93868997895B
:101F00000197F1F7608D718DA685B785558538E00D
:101F100020E0CB010197F1F7822F90E0959587950E
:101F2000282F4C91452309F02068315091F7868D78
:101F300081FD209580915F0390E001968F73992732
:101F400030916003381749F0A0915F03B0E0AD59BC
:101F5000BC4F2C9380935F0303C0868D8160868F76
:101F6000828D938D0197F1F7A389B4899C9185891E
:101F7000892B8C93FF91EF91BF91AF919F918F919E
:101F80007F916F915F914F913F912F910F900FBE75
:101F90000F901F9018952F923F924F925F926F92E1
:101FA0007F928F929F92AF92BF92CF92DF92EF92E9
:101FB000FF920F931F93CF93DF9300D000D0CDB744
:101FC000DEB7182F7A83698380E891E0E5E0F1E0DD
:101FD000DF019C011D9221503040E1F7E0915C044B
:101FE00037E0E39FF0011124EA5AFB4F87858130E7
:101FF00069F0823071F084E494E00E94A81E8EE1C2
:1020000090E090932C0580932B050BC084E293E025
:1020100002C084E092E00E94A81E10922C0510924B
:102020002B0583E090E090932E0580932D0581E0B1
:102030008093330581E090E09093320580933105E1
:102040009093300580932F05412F50E060E070E0C1
:102050002AE08FE195E00E94CB1A89819A8197FD51
:10206000A5C00091290510912A05180117FF03C08A
:102070009FEF291A390A35942794B101032C000CDB
:10208000880B990B0E94C6312B013C01A981BA81B2
:10209000BD01BB0F880B990B0E94C6312BED3FE0B1
:1020A00049E450E40E94913220E030E044E353E4FC
:1020B0000E941C316B017C010E9417314B015C01B5
:1020C00020912705309128053C832B832017310769
:1020D0002CF4B901330F880B990B05C0B801012E00
:1020E000000C880B990B0E94C631A50194010E9437
:1020F000913220E030E040E05FE30E949132A301A2
:1021000092010E94AB3020E030E040E85FE30E94A3
:10211000AA300E948E314B015C018B819C8197FD1E
:102120000196DC01B595A795BA83A983BD01BB0FC4
:10213000880B990B0E94C6312B013C01C701B601E7
:102140000E94FE326B017C012B813C8120173107FC
:102150002CF4B901330F880B990B04C0B801110F8F
:10216000880B990B0E94C631A70196010E949132FB
:1021700020E030E040E05FE30E949132A301920151
:102180000E94AB3020E030E040E85FE30E94AA30DC
:102190000E948E31EE24E394F12C84019B01A10175
:1021A00069817A818FE195E00E94C3180F900F90AA
:1021B0000F900F90DF91CF911F910F91FF90EF90B3
:1021C000DF90CF90BF90AF909F908F907F906F9057
:1021D0005F904F903F902F900C94201E80E891E0EC
:1021E000E5E0F1E0DF019C011D9221503040E1F774
:1021F000E0915C0437E0E39FF0011124EA5AFB4FC1
:102200008785813029F0823031F084E494E005C084
:1022100084E293E002C084E092E00E94A81E0C9445
:10222000201E80E891E0E5E0F1E0DF019C011D92D5
:1022300021503040E1F784EE90E00E94A81E0C94FB
:10224000201E90E08131910508F052C0FC01EC5C49
:10225000FF4F0C94773386EE80934D0310924C031E
:102260003EC086EE80934D0389E337C086EE8093AF
:102270004D0387E932C08EE480934D0302C0109273
:102280004D0386EE2AC010924D0386EE80934C03D8
:102290008EE433C010924D0386EE80934C0380E9A8
:1022A0002CC010924D0386EE26C08BE101C080E564
:1022B00080934D0319C086EE80934D0310924C031A
:1022C0001CC086EE80934D0310924C038BE015C02A
:1022D00086EE0FC086EE80934D0380934C031092E0
:1022E0004E03089510924D0310924C0386EE05C0E4
:1022F00084E680934D0380934C0380934E030895AE
:10230000EF92FF920F931F93CF93082F60915E047B
:1023100070E084E190E00E9463337B01C0E010E054
:102320008C2F0C2E000C990B20915E0430E082174C
:102330009307DCF4E89E9001E99E300DF89E300D85
:102340001124A801421B530B9A0157FD07C04531C8
:10235000510514F024E130E0522F01C050E040E07C
:1023600060E00E94501DCF5FDBCFCF911F910F9196
:10237000FF90EF900C94141D61E085E00E94B2255F
:1023800061E086E00C94B22561E08DE00E94B22508
:1023900064E670E080E090E00E94342660E085E032
:1023A0000E94B22560E086E00E94B22560E089E0EC
:1023B0000C94B225BF92CF92DF92EF92FF920F93CF
:1023C0001F93CF93DF93D62EE72E182FF42EB22E25
:1023D00080915D049FEF2917A1F00F3F91F0021744
:1023E00084F0282F30E04B2D0B2C000C550B2417BC
:1023F00035073CF0402F002E000C550B24173507F5
:1024000024F4B0905E040B2D080F84E10E941D2679
:1024100085E10E941D2684E10E941D26EC0185E1D4
:102420000E941D269E01281B390B37FF03C03195E2
:10243000219531094FE1429FC001439F900D112426
:1024400060915B0470E00E9463336F3F710509F097
:10245000E4F484E10E941D26EC0185E10E941D2622
:102460009E01281B390B37FF03C031952195310997
:102470004FE1429FC001439F900D112460915B0486
:1024800070E00E9463339B0102C02FEF30E0E29EB8
:10249000C001E39E900D1124EFEFF0E0BF010E9418
:1024A0004F33E62ED29EC001D39E900D1124BF0162
:1024B0000E944F33D62E129FC001139F900D1124FE
:1024C000BF010E944F33D62FCB2D002E000C110BD5
:1024D0008C2F90E0081719073CF04D2D5E2D6D2FC5
:1024E0000E94501DCF5FF4CF0E94CA2F2AE030E037
:1024F00040E050E00E944730613071058105910550
:10250000C9F4C0909002D0909102E0909202CB2D3D
:10251000BB0CDD0BB8016C1B7D0B072E000C880B70
:10252000990B0E944E1ACE01860F971F6E2DA601A1
:102530000E94501DFF2059F0DF91CF911F910F9104
:10254000FF90EF90DF90CF90BF900C94141DDF911F
:10255000CF911F910F91FF90EF90DF90CF90BF90A0
:1025600008950F931F93CF93DF9387FD02C067FFFA
:102570000DC0C0E0D0E040E050E060E0CE010E943D
:10258000501D2196C932D105B1F710C0C82F062FB2
:10259000660F110B8C2F90E0081719073CF040E0F4
:1025A00050E060E00E94501DCF5FF4CFDF91CF91EB
:1025B0001F910F910C94141DEF92FF920F931F9394
:1025C000CF93DF937C0161E089E00E94B225009106
:1025D0005E0410E090915E0480915D04C92FD0E00C
:1025E0009E01280F311D0217130770F520915E041C
:1025F00080915D0490E0820F911DC817D90798F46F
:102600000C171D0729F040E050E060E0CE0107C044
:1026100050914D0340914C0360914E03C8010E94BC
:10262000501D2196E3CF0E94141D60915D0470E05F
:10263000660F771FC7010E944F3380E090E00E9431
:1026400034260F5F1F4FC6CF890F8150682F0E941D
:10265000B11260E089E0DF91CF911F910F91FF905F
:10266000EF900C94B225CF92DF92EF921F93CF930D
:10267000DF936B01E82E4F3F19F42F3F89F404C01C
:10268000241714F04A32C4F0C0E0D0E06E2DA60149
:10269000CE010E94501D2196C932D105B9F704C060
:1026A0002F3F94F32A3284F7DF91CF911F91EF905F
:1026B000DF90CF900C94141D2A3234F7142FC22FC0
:1026C000220FDD0B812F90E0C817D9076CF36E2D18
:1026D000A6010E94501D1F5FF5CFCF93DF93D82F27
:1026E00060915E0480915D04680F80E00E94B112E9
:1026F000C0E0CD17B1F080915E04853038F02C2F0A
:102700004C2F65E070E08AE00E94331381E00E9464
:10271000E9056BEE70E080E090E00E943426CF5F28
:10272000E8CFDF91CF9108950895CF92DF92EF9295
:10273000FF920F931F93CF93DF936C017A018B016C
:10274000C0E0D0E0CE15DF0581F0D8016D918D019C
:10275000D601ED91FC910190F081E02DC601099523
:10276000892B11F02196EECF7E01C701DF91CF9129
:102770001F910F91FF90EF90DF90CF900895FC0193
:10278000538D448D252F30E0842F90E0821B930BD6
:10279000541710F0CF96089501970895FC01918D7C
:1027A000828D981761F0828DDF01A80FB11D5D96B3
:1027B0008C91928D9F5F9F73928F90E008958FEF21
:1027C0009FEF0895FC01918D828D981731F0828DD5
:1027D000E80FF11D858D90E008958FEF9FEF08952C
:1027E000FC01918D228D892F90E0805C9F4F821B90
:1027F00091098F739927089584E794E00E94F0135C
:1028000021E0892B09F420E0822F0895FC01848DBA
:10281000DF01A80FB11DA35ABF4F2C91848D90E00A
:1028200001968F739927848FA689B7892C93A089E5
:10283000B1898C91837080648C93938D848D98136F
:1028400006C00288F389E02D80818F7D8083089502
:10285000EF92FF920F931F93CF93DF93EC0181E0F0
:10286000888F9B8D8C8D981305C0E889F9898081AC
:1028700085FD26C0F62E0B8D10E00F5F1F4F0F73E6
:102880001127E02E8C8DE8120CC00FB607FCFACF92
:10289000E889F989808185FFF5CFCE010E94061471
:1028A000F1CF8B8DFE01E80FF11DE35AFF4FF0824F
:1028B0009FB7F8940B8FEA89FB89808180620AC0F8
:1028C0009FB7F894EE89FF896083E889F989808150
:1028D0008370806480839FBF81E090E0DF91CF911F
:1028E0001F910F91FF90EF900895CF93DF93EC012C
:1028F000888D8823C9F0EA89FB89808185FD05C020
:10290000A889B9898C9186FD0FC00FB607FCF5CF59
:10291000808185FFF2CFA889B9898C9185FFEDCFA1
:10292000CE010E940614E7CFDF91CF91089580E099
:1029300090E0892B29F00E94FC1381110C94000077
:1029400008950F931F93CF93DF93DC0155968C91DD
:102950005597823071F0833009F1813009F08CC0D5
:102960001496ED91FC911597E41BF50BE21BF30B0C
:1029700020C01496ED91FC911597CF01861B970B03
:10298000BC01615071091696ED91FC911797CF012A
:10299000841B950BAC01421B530B6EC01696ED9138
:1029A000FC911797CF01861B970BBC0161507109F1
:1029B000FA0177FD1BC116968D919C9117976817A8
:1029C00079070CF013C1F7FF04C02E0F3F1FE0E0A2
:1029D000F0E014968D919C911597AF01420F531F13
:1029E000841795071CF49C012E1B3F0B121613062F
:1029F0000CF0FCC0CB0177FD079643E095958795D9
:102A00004A95E1F756E0880F991F5A95E1F7E80FCC
:102A1000F91FEB5FFE4F6770772781E090E001C000
:102A2000880F6A95EAF7482F0130110541F088F0C8
:102A30000230110509F0DAC02E0F3F1F15C02E0F0E
:102A40003F1FE217F30709F4D1C08081842B8193E3
:102A5000F8CF80952E0F3F1FE217F30709F4C6C089
:102A6000908198239193F8CFE217F30709F4BEC041
:102A7000808184278193F8CF77FDB8C014968D911B
:102A80009C911597681779070CF0B0C057FF04C0E8
:102A9000240F351F40E050E016968D919C911797BA
:102AA000FA01E20FF31F8E179F071CF49C01241BF1
:102AB000350B121613060CF099C0A22F842F8695A1
:102AC0008695869590E4899F600D711D1124FB0108
:102AD000EB5FFE4F4770A9F198E0941B492F50E03F
:102AE000EA01CF54DD4F8881291790F4421B510928
:102AF0002FEF30E002C0359527954A95E2F7822303
:102B00000130110541F068F00230110589F06EC006
:102B10000130110519F42081822B0CC00130110500
:102B200020F480952081822305C00230110531F404
:102B3000208182278083A91708F458C0A91BE05C74
:102B4000FF4FA83048F10230110559F4EF018A2FE8
:102B5000988190959883C05CDF4F88508830C0F78B
:102B600030C081E00130110509F080E08195EF016E
:102B70009A2F8883C05CDF4F98509830D0F788EF49
:102B80008A0F86958695869590E4899FE00DF11DC4
:102B90001124E05CFF4FA770AA2341F1B0E0A755D4
:102BA000BD4F8C910130110529F038F0023011052C
:102BB000E9F419C09081892B18C0809590818923F0
:102BC00014C088EF8A0F86958695869590E4899F34
:102BD000E00DF11D1124E05CFF4FA77039F0B0E06B
:102BE000A755BD4F8C91908189278083DF91CF912C
:102BF0001F910F9108950F931F93CF93DF93DC01E3
:102C0000FB0155968C915597823089F0833021F1E4
:102C1000813009F0E7C014968D919C911597BC0105
:102C2000641B750BAB0141505109BF011DC01496C7
:102C30006D917C911597CB018E1B9F0BFC01169615
:102C40008D919C911797BC01641B750BAB01415092
:102C50005109E21BF30BC6C016966D917C91179734
:102C60006E1B7F0B621B730B57FD1BC114968D915E
:102C70009C911597481759070CF013C177FF04C0B2
:102C8000260F371F60E070E016968D919C91179784
:102C9000FB01E20FF31F8E179F071CF49C01261BFC
:102CA000370B121613060CF0FCC0A22F862F869548
:102CB0008695869590E4899F400D511D1124FA0157
:102CC000EB5FFE4F6770A9F198E0961B492F50E02B
:102CD000EA01CF54DD4F8881291790F4421B510936
:102CE0002FEF30E002C0359527954A95E2F7822311
:102CF0000130110541F068F00230110589F0D1C0B2
:102D00000130110519F42081822B0CC0013011050E
:102D100020F480952081822305C00230110531F412
:102D2000208182278083A91708F4BBC0A91BE05C1F
:102D3000FF4FA83048F10230110559F4EF018A2FF6
:102D4000988190959883C05CDF4F88508830C0F799
:102D500033C081E00130110509F080E08195EF0179
:102D60009A2F8883C05CDF4F98509830D0F788EF57
:102D70008A0F86958695869560E4869FE00DF11D05
:102D80001124E05CFF4FA770AA2309F48AC0B0E0C9
:102D9000A755BD4F8C910130110531F040F0023044
:102DA000110509F07EC01BC09081892B03C080955E
:102DB00090818923808375C088EF8A0F86958695D8
:102DC000869570E4879FE00DF11D1124E05CFF4FB4
:102DD000A77009F466C0B0E0A755BD4F8C919081F3
:102DE0008927E8CF57FD5DC016968D919C91179766
:102DF000481759070CF055C0F7FF04C02E0F3F1FAE
:102E0000E0E0F0E014968D919C911597BF01620F60
:102E1000731F861797071CF49C012E1B3F0B12167D
:102E200013060CF03EC0CA0157FD079663E0959566
:102E300087956A95E1F776E0880F991F7A95E1F713
:102E4000E80FF91FEB5FFE4F4770552781E090E0D8
:102E500001C0880F4A95EAF7482F0130110539F073
:102E600078F002301105E9F42E0F3F1F13C02E0F2A
:102E70003F1FE217F307A9F08081842B8193F9CFDC
:102E800080952E0F3F1FE217F30759F0908198238A
:102E90009193F9CFE217F30721F080818427819382
:102EA000F9CFDF91CF911F910F910895FC0177FD2C
:102EB0009AC080859185681779070CF094C057FDFA
:102EC00092C082859385481759070CF08CC085897C
:102ED000823009F07CC084819581DC01A61BB70B90
:102EE000BD016150710986819781FC01E41BF50BDE
:102EF000AF01415051090AC0813041F4848195816C
:102F0000841B950BAB01BC01615071092130310567
:102F100029F008F122303105E1F10895FA0157FD59
:102F20003796A3E0F595E795AA95E1F7B6E0EE0FA1
:102F3000FF1FBA95E1F76E0F7F1FFB01EB5FFE4F9E
:102F40004770552781E090E001C0880F4A95EAF765
:102F50009081892B3AC0FA0157FD379623E0F59509
:102F6000E7952A95E1F736E0EE0FFF1F3A95E1F776
:102F70006E0F7F1FFB01EB5FFE4F4770552781E00F
:102F800090E001C0880F4A95EAF7809590818923E7
:102F90001CC0FA0157FD379683E0F595E7958A95B1
:102FA000E1F796E0EE0FFF1F9A95E1F76E0F7F1F96
:102FB000FB01EB5FFE4F4770552781E090E001C0B9
:102FC000880F4A95EAF79081892780830895833096
:102FD00009F092CF86819781861B970BBA01AC01CD
:102FE0004150510993CF08950895EF92FF920F93A6
:102FF0001F93DC011A960D911C911B9718962D9129
:103000003C911997ED91FC910288F389E02D7B01A9
:1030100040E050E060E070E009951F910F91FF9053
:10302000EF9008956F927F928F929F92AF92BF928E
:10303000CF92DF92EF92FF920F931F93CF93DF9384
:103040006C015A014801EB013B01620E731EC6156B
:10305000D70574F4D601ED91FC910484F585E02D3B
:1030600087019401A501BE01C60109952196EFCF04
:10307000DF91CF911F910F91FF90EF90DF90CF9054
:10308000BF90AF909F908F907F906F900895EF9238
:10309000FF920F931F93260F371F21503109DC0138
:1030A000ED91FC910284F385E02D78018A01099568
:1030B0001F910F91FF90EF900895EF92FF920F9361
:1030C0001F93240F351F21503109DC01ED91FC9134
:1030D0000284F385E02D780189019B0109951F91F8
:1030E0000F91FF90EF9008956F927F928F929F9231
:1030F000AF92BF92CF92DF92EF92FF920F931F9306
:10310000CF93DF93EC014B015A0169013801E8814B
:10311000F9810684F785E02D87010995A501460D03
:10312000571D41505109E881F9810684F785E02D4A
:103130009601B401CE010995E881F9810484F585F1
:10314000E02D9301A501B401CE010995C80CD91C4D
:10315000B60161507109E881F9810484F585E02D9B
:103160009301A501CE010995DF91CF911F910F9198
:10317000FF90EF90DF90CF90BF90AF909F908F9097
:103180007F906F9008952F923F924F925F926F922F
:103190007F928F929F92AF92BF92CF92DF92EF92E7
:1031A000FF920F931F93CF93DF9300D000D000D0F6
:1031B000CDB7DEB72C017E836D836A015901C8014A
:1031C000FC82EB824801841A950A97FE03C0919411
:1031D0008194910835012D813E81621A730A77FE30
:1031E00003C0719461947108681479045CF43A2DF9
:1031F0002B2D5C01832F922F3D812E81DE82CD828B
:10320000C32ED22EAD81BE81AA16BB065CF43C2D26
:103210002D2D6C01832F922F3D812E81BE82AD8298
:10322000A32EB22E85012D813E81021B130B1C01A2
:103230002C183D0837FE03C03194219431087801E1
:1032400017FF03C03FEFE31AF30AF594E794C8169B
:10325000D9062CF08FEF9FEF9A83898304C0A1E0F9
:10326000B0E0BA83A9832D813E81A216B30624F172
:10327000D201ED91FC910084F185E02D2B813C8100
:103280006814790424F44D815E81B60103C0A6015F
:103290006D817E81C2010995E218F308F7FE06C030
:1032A00029813A81C20ED31EE00EF11E8D819E81CE
:1032B00001969E838D83D7CF26960FB6F894DEBFF6
:1032C0000FBECDBFDF91CF911F910F91FF90EF9077
:1032D000DF90CF90BF90AF909F908F907F906F9036
:1032E0005F904F903F902F9008950E949E34AF9230
:1032F000BF92CF92EF92FF920F931F93CF93DF93E2
:10330000EC01262F888D998D009709F042C06A3014
:1033100069F42C898E859F8538E0239F800D911D4F
:1033200011249F878E871D861C86ACC06D3009F4E2
:10333000A9C08E898823C1F03C898C859D8546E093
:10334000349F800D911D1124488559858417950758
:103350005CF01D861C868E859F85E8E03E9F800D73
:10336000911D11249F878E87EA88FB880889198917
:103370004E855F856C857D85CC88CE010E94E723D4
:103380002C898C859D85F6E02F9F800D911D112441
:1033900041C06A3079F41D861C862C89FC01369662
:1033A000E4918E859F852E9F800D911D11249F870E
:1033B0008E8768C06D3009F465C0AC014C5F5F4F0B
:1033C000FA013491631708F45DC03196E491E61771
:1033D00008F458C0FA014491362F341BFC01329690
:1033E000A590B490F7E03F9FA00CB11C1124F5010B
:1033F000329634913196E491332311F0E1110DC0EE
:10340000F5013496E4912C898C859D85E29F800D91
:10341000911D11249D878C8735C0F5013596449107
:103420005E89552311F16C89E32FF0E0E40FF11D63
:1034300047FDFA956E9FD0016F9FB00D11244C850A
:103440005D854A0F5B1FE885F9854E175F076CF0B5
:103450001D861C86FC013696E4918E859F856E9FA5
:10346000800D911D11249F878E87EA88FB8808892B
:1034700019894E855F856C857D85CC88CE010E943B
:10348000E723BECF81E090E0DF91CF911F910F91B4
:10349000FF90EF90CF90BF90AF900895CF92DF92C2
:1034A000EF92FF92611571058105910549F06B015D
:1034B0007C010E94CA2FA70196010E94473003C0D9
:1034C00060E070E0CB01FF90EF90DF90CF90089527
:1034D0001F920F920FB60F9211242F933F934F9389
:1034E0005F936F937F938F939F93AF93BF93EF936C
:1034F000FF93E0910201F09103010995FF91EF9193
:10350000BF91AF919F918F917F916F915F914F91FB
:103510003F912F910F900FBE0F901F9018951F9203
:103520000F920FB60F9211242F933F934F935F93F7
:103530006F937F938F939F93AF93BF93EF93FF937B
:10354000E0910001F09101010995FF91EF91BF9188
:10355000AF919F918F917F916F915F914F913F912B
:103560002F910F900FBE0F901F9018956115710548
:1035700079F0FB0101900020E9F73197AF01461B7C
:10358000570BDC01ED91FC910280F381E02D099451
:1035900080E090E008958F929F92AF92BF92EF9259
:1035A000FF920F931F93CF93DF93CDB7DEB7A19711
:1035B0000FB6F894DEBF0FBECDBF7C01FA01CB0180
:1035C00019A2223008F42AE08E010F5D1F4F822ECF
:1035D000912CA12CB12CBF01A50194010E9479303E
:1035E000F901CA01015011096A3014F4605D01C08B
:1035F000695CD8016C93232B242B252B61F7B80130
:10360000C7010E94B61AA1960FB6F894DEBF0FBE8E
:10361000CDBFDF91CF911F910F91FF90EF90BF90A1
:10362000AF909F908F9008951F920F920FB60F92B8
:1036300011242F933F934F935F936F937F938F93B7
:103640009F93AF93BF93EF93FF9384E794E00E941F
:103650000614FF91EF91BF91AF919F918F917F9150
:103660006F915F914F913F912F910F900FBE0F90EF
:103670001F9018951F920F920FB60F9211242F933F
:103680008F939F93EF93FF93E0918404F0918504CF
:103690008081E0918A04F0918B0482FD12C09081B8
:1036A00080918D048F5F8F7320918E04821751F06B
:1036B000E0918D04F0E0EC58FB4F958F80938D04E2
:1036C00001C08081FF91EF919F918F912F910F9079
:1036D0000FBE0F901F901895CF92DF92EF92FF923E
:1036E0000F931F93CF93DF93EC0188810E9489256C
:1036F0008C010E94A126298D3A8D2115310579F47E
:103700002A853B850217130709F0ACC021E030E0A1
:103710003A8F298F6B8F7C8F8D8F9E8FA3C0213026
:10372000310509F052C02885398502171307D9F4ED
:103730000B8D1C8D2D8D3E8DAB01BC01401B510BA3
:10374000620B730B8E819F81092E000CAA0BBB0BA1
:10375000481759076A077B0718F41A8E198E82C01A
:1037600082E090E02FC02A853B850217130709F0FD
:1037700079C00B8D1C8D2D8D3E8DAB01BC01401B86
:10378000510B620B730B8C819D81092E000CAA0BCF
:10379000BB0B84179507A607B70708F063C081E045
:1037A0008C87E989FA89309709F00995EB89FC89BA
:1037B000309709F00995EF89F88D309709F0099550
:1037C00086E090E09A8F898F4DC02230310501F557
:1037D000CB8CDC8CED8CFE8CDC01CB018C199D0933
:1037E000AE09BF09CA80DB800D2C000CEE08FF0873
:1037F000C816D906EA06FB0618F4ED85FE851EC03C
:103800008A859B850817190769F583E090E0DACF70
:103810002330310541F4888599850817190711F57A
:10382000EF85F8890BC026303105E1F4888599854C
:103830000817190741F41C86ED89FE89309709F4B1
:103840008CCF09958ACF81E08C87EF89F88D3097EE
:1038500049F0DF91CF911F910F91FF90EF90DF9092
:10386000CF900994DF91CF911F910F91FF90EF902E
:10387000DF90CF90089530915504313208F04BC05D
:10388000809132048111FCCF9091C50522E02093F4
:10389000320421E0209331042FEF20933004109262
:1038A0002F0430932E04E5E3F4E0AEE0B4E020E032
:1038B000321721F041914D932F5FFACF10920D04F2
:1038C00020910D04990F922B90930D0490910C046C
:1038D000913061F410920C0490910D049093BB0010
:1038E0009091BC0093FDF8CF95EC01C095EE9093BC
:1038F000BC00909132049230E1F3909130049F3FEC
:1039000079F080913004803241F08091300480332E
:1039100031F084E005C081E003C082E001C083E0B3
:10392000109234041092550410923304089590912B
:103930004005992339F08EBD00000DB407FEFDCF80
:103940008EB5089528E030E040E8E0914305F0911D
:103950004405508190914A05909595239083E0917C
:103960004105F091420590914905582F542319F0D3
:103970005081952B03C05081909595239083E091C1
:103980004305F0914405508190914A05952B908311
:10399000469521503109C9F608959EE790935B053D
:1039A0009FEF90935C0596E090935D0580935E0594
:1039B0008091710580935F054115510521F46F3F9A
:1039C000710509F018F44093600502C0709360051A
:1039D0006093610510926205109263058FEE8093EB
:1039E0006405ECE5F5E022E635E080E090E0419109
:1039F000840F911D2E173F07D1F79195819591095D
:103A00009093620580936305089580915905909184
:103A10005A05DC01ED91FC910280F381E02D4AE032
:103A200050E06BE575E00994E091BE05F091BF05AB
:103A300090818091C005892B8083A091BC05B091B5
:103A4000BD054091C0058091B5059091B6059C01DA
:103A5000220F331F820F931F6091B7055091B80555
:103A60002C91342F30953223242B4FB7F894E62F26
:103A7000F52F8E0F9F1FE817F90781F0519168E02D
:103A80002C9300C057FF3C93550F00C000C000C0EE
:103A900008F43C9300C06A9599F7EDCF4FBF0895A5
:103AA0002091B5053091B6058217930740F5FC01CA
:103AB000EE0FFF1F8E0F9F1F2091BA05A091B70533
:103AC000B091B805A80FB91FA20FB11D4C9320915A
:103AD000B905A091B705B091B805A80FB91FA20FFD
:103AE000B11D5C932091BB05E091B705F091B8053D
:103AF000E80FF91FE20FF11D608380E0089581E077
:103B00000895EF92FF920F931F93CF93DF938C0151
:103B10001816190634F4843691052CF004E610E0EA
:103B200002C000E010E0C0E0D0E084E6E82EF12C16
:103B300020915E04422F50E0C417D50780F5409FC6
:103B4000C001419F900D509F900D1124B7010E941C
:103B50006333C617D707D8F43EE1239FC001112471
:103B6000B7010E946333C617D70710F45AE010C09C
:103B70003CE3239FC0011124B7010E946333C617A1
:103B8000D70710F45AE001C050E04AE002C050E00C
:103B900040E060E0CE010E94501D2196C9CFDF9128
:103BA000CF911F910F91FF90EF900C94141DCF9324
:103BB000C82F80913B058F3F59F1E0914505F09169
:103BC0004605908180914B05892B8083E0914705C4
:103BD000F0914805908180914C05809589238083E0
:103BE000E0914505F0914605908180914B058095C7
:103BF000892380838C2F0E94971CE0914505F091CA
:103C00004605908180914B05892B8083CF91089543
:103C10008091390591E0909333048093C50510920B
:103C200034041092550460E083E195E00E943E0D5B
:103C30006C2F83E195E00E943E0DCF910C943B1CCC
:103C4000BF92CF92DF92EF92FF920F931F93CF9389
:103C5000DF9381E20E94D71D80E20E94D71D8FE58D
:103C60000E94D71D82E20E94D71D80E00E94D71DCE
:103C700085E00E94D71D80913B058F3F81F1E09147
:103C80004505F0914605908180914B05892B8083F5
:103C9000E0914705F0914805908180914C05892B72
:103CA0008083E0914505F0914605908180914B0518
:103CB000809589238083C5E0D1E005E812E08991F1
:103CC0000E94971C0C171D07D1F7E0914505F09154
:103CD0004605908180914B05892B80832FC00091F0
:103CE000B8008CE08093B800C5E0D1E085E8C82E2C
:103CF00082E0D82EBB24B39480913905B09233046E
:103D00008093C505109234041092550460E483E159
:103D100095E00E943E0D7E0110E1F70161917F0167
:103D200083E195E00E943E0D1150B9F70E943B1CC3
:103D30006096CC16DD0601F70093B800DF91CF91B5
:103D40001F910F91FF90EF90DF90CF90BF9008955B
:103D5000BF92CF92DF92EF92FF920F931F93CF9378
:103D6000DF936C01E12CF12C00E010E0C0E0D0E02A
:103D7000CE0187709927892B11F0BB0C0BC0FE0177
:103D800083E0F595E7958A95E1F7EE0DFF1DEC0DC3
:103D9000FD1DB490B7FE0AC021E030E0A801BE01CD
:103DA000685F7F4F8FE195E00E9456172196C033E0
:103DB000D105F1F60F5F1F4F86E0E80EF11C0033CE
:103DC0001105A1F6DF91CF911F910F91FF90EF9018
:103DD000DF90CF90BF90089510920B0410920A04C8
:103DE00010923404109255041092320481E08093B2
:103DF000310410920C0461E082E10E94B22561E07E
:103E000083E10E94B225E9EBF0E080818E7F808320
:103E100080818D7F808388E48093B80085E48093DF
:103E2000BC0083EE9CE0909309048093080484EE28
:103E30009CE090930704809306040895CF93DF934A
:103E4000AC0160E070E02AE084E794E00E94CB1AC5
:103E5000EC0167E173E084E794E00E94B61A8C0FEE
:103E60009D1FDF91CF91089580915B0390915C033A
:103E7000019779F480915603909157030F97029719
:103E800040F480915403909155039093570380938D
:103E90005603089580915B0390915C0381309105F6
:103EA00041F410925C0310925B0390935A03809349
:103EB00059030895CF93DF9380915B0390915C0346
:103EC0000197E1F50E94A1266093C1057093C20598
:103ED0008093C3059093C4051092580380915603B4
:103EE00090915703009719F489E090E005C0823063
:103EF000910539F48AE090E090935703809356033C
:103F00001DC00D970297D0F480915C04C6E18C9F90
:103F1000C02D1124D0E061E070E080E090E00E94CC
:103F20004E1ACE014F96860F0E94E90564EF71E0AC
:103F300080E090E0DF91CF910C943426DF91CF9117
:103F4000089580915B0390915C038230910549F460
:103F500010925C0310925B0390935A038093590371
:103F6000089581309105C9F40E94A1266093C1058E
:103F70007093C2058093C3059093C40510925803B3
:103F800080915603909157030E9709F580E190E0D8
:103F900090935703809356030895009759F484E053
:103FA00090E090935C0380935B0310925A0310920D
:103FB000590308958430910551F410925C031092D6
:103FC0005B0390935A03809359030C94D70508958B
:103FD000CF93DF93C4E6D5E0FE01649161110FC079
:103FE00067E173E084E794E00E94B61AC0915B0336
:103FF000D0915C03C130D10509F05DC008C084E7F1
:1040000094E00E9428142196892B31F7E9CF809102
:104010005603909157039C012051310922303105FC
:1040200030F4109257031092560381E030C000978D
:1040300091F40E94A1266093C1057093C2058093FC
:10404000C3059093C40510925803D0935703C093AF
:10405000560382E01CC08330910509F1813091053F
:1040600041F482E090E0909357038093560383E0FD
:104070000EC08230910511F00D9789F481E190E036
:1040800090935703809356030E94201E84E00E9461
:104090006D1364EF71E080E090E00E94342680911F
:1040A000560390915703429731F483E190E0909347
:1040B000570380935603DF91CF9108950F931F9379
:1040C000CF93DF9300915B0310915C0301301105E6
:1040D00009F06EC00E94A1266093C1057093C205CD
:1040E0008093C3059093C4051092580380915603A2
:1040F000909157038930910529F41092570310923B
:10410000560356C08B30910539F580915C04C6E1A9
:104110008C9FC02D1124D0E061E070E080E090E041
:104120000E944E1ACE018296860F0E94E90540E059
:1041300060E080ED97E00E94AD2610935703009356
:10414000560380915E0460915D04680FDF91CF910A
:104150001F910F910C94B1128A309105F9F482E00D
:1041600090E0909357038093560341E060E0809184
:104170005505909156050E94AD260E94D705809165
:104180005E0460915D04680F0E94B11260E089E0F6
:10419000DF91CF911F910F910C94B2250F9741F4AD
:1041A0008091540390915503909357038093560345
:1041B000DF91CF911F910F910895CF93C82F61E0A8
:1041C00070E080E090E00E944E1A2C2F30E0205FDB
:1041D0003F4FC901860F971FCF91089580915203D9
:1041E000909153030297029720F06FEF8FEF0E9498
:1041F000B1128091520390915303089731F48FEFDD
:104200009FEF9093530380935203E0915203F091F8
:1042100053033196F0935303E0935203EA30F105D0
:1042200008F0ACC0EB5BFF4F0C94773384E090E078
:1042300090935303809352030E94201E80915B044D
:1042400024E6829FC00111246EE170E00E94633376
:10425000CB010E94811D84E017C06FEF8FEF0E9499
:10426000B1120E94201E85E00E94E90568E572E017
:1042700080E090E00E94342690915C0486E1989F53
:10428000802D11240E94DD200E94E90564EF71E079
:1042900080E090E00C9434260E94201E87E00E946B
:1042A000E90564EF71E080E090E00E943426E0913F
:1042B0005C0487E0E89FF0011124EE59FB4F13C026
:1042C0000E94201E86E00E94E90564EF71E080E014
:1042D00090E00E943426E0915C0427E0E29FF00128
:1042E0001124E15AFB4F90818281218120934D035B
:1042F00090934C0380934E030E94BC1140915E0446
:1043000020915D04240F60914C0370914D038091C6
:104310004E030C9433130E94A3050E94201E8CE0D0
:10432000B3CF0E94201E40915E0420915D04240FB3
:104330002150E0915C0487E0E89FF0011124EA5AE3
:10434000FB4F6185728583850E9433138DE09CCF7E
:104350000E94201E20915E04215040E060E070E049
:104360008AE00E9433138EE08FCF0E94201E0C94AF
:10437000A3058FE00E94E9050C94201E0895CF93B9
:10438000DF9380915B0390915C038130910509F08C
:1043900087C00E94A1266093C1057093C2058093D7
:1043A000C3059093C405109258038BE00E948925A1
:1043B000892B69F580915C04823019F410925C04B9
:1043C00003C08F5F80935C0480915C04C6E18C9F86
:1043D000C02D1124D0E061E070E080E090E00E9408
:1043E0004E1ACE014196860F0E94E90560ED77E0F6
:1043F00080E090E00E94342680915603909157030C
:10440000909355038093540385E190E027C08091F9
:104410005603909157038230910529F580915C04F1
:10442000C6E18C9FC02D1124D0E061E070E080E0F7
:1044300090E00E944E1ACE018496860F0E94E005FD
:1044400061E089E00E94B22541E061E0809155057C
:10445000909156050E94AD268AE090E09093570314
:104460008093560350C0019709F04DC08BE090E057
:10447000909357038093560380915C04C6E18C9F10
:10448000C02D1124D0E061E070E080E090E00E9457
:104490004E1ACE018196860FDF91CF910C94E005E4
:1044A00082309105A1F420915203309153032730BB
:1044B000310549F410925C0310925B0390935A0308
:1044C0008093590320C0DF91CF910C94EE20009788
:1044D00059F482E090E090935C0380935B03109228
:1044E0005A03109259030FC0049769F480914F0347
:1044F000823519F08F5F80934F0380914F03DF91D6
:10450000CF910C94E905DF91CF910895833081F02C
:1045100028F4813099F08230A1F008958730A9F015
:104520008830B9F08430D1F4809180008F7D03C051
:10453000809180008F7780938000089584B58F7775
:1045400002C084B58F7D84BD08958091B0008F77BF
:1045500003C08091B0008F7D8093B00008953FB775
:10456000F8948091CA059091CB05A091CC05B091AB
:10457000CD0526B5A89B05C02F3F19F00196A11DBA
:10458000B11D3FBFBA2FA92F982F8827820F911DE9
:10459000A11DB11DBC01CD0142E0660F771F881F30
:1045A000991F4A95D1F708958F929F92AF92BF922B
:1045B000CF92DF92EF92FF920F931F93CF93DF93EF
:1045C000C1EDD5E00CED15E060915D0470E0CE0129
:1045D000815D9540861797070CF049C0C880D12CA3
:1045E000E12CF12CC8010E9463336E5F7F4F072ED0
:1045F000000C880B990B0E944E1AC61AD70AE80ABB
:10460000F90AF7FC2FC0C880D12CE12CF12C609165
:104610005D0470E0C8010E9463336E5F7F4F072E18
:10462000000C880B990B0E944E1AC61AD70AE80A8A
:10463000F90A4FEFC416D104E104F10409F0A4F41F
:10464000F88060915D0470E0C8010E9463336E5F82
:104650007F4F072E000C880B990B0E944E1A8F2D4E
:10466000861B03C080E001C08FEF8993ADCF9B0113
:10467000F901E153FA4FC3E0D0E021503109223073
:10468000310564F08081429190E0840F911D840F88
:10469000911DBE010E9463336283EFCF0E94CA2F37
:1046A0002FEF30E040E050E00E944730663971055E
:1046B00081059105A4F50E94CA2F27E030E040E073
:1046C00050E00E9447306B017C010E94CA2FE60136
:1046D000CF52DA4FC880D12CE12CF12C0E94CA2F86
:1046E0002FE5822E912CA12CB12CA50194010E94C2
:1046F0004730C60ED71EE81EF91E50E6C516D10477
:10470000E104F10454F418810E94CA2F1056A50147
:1047100094010E944730610F01C06FEF6883C09120
:104720005E04D0E010EC00E080915E0490E0209107
:104730005D04AC01420F511DC417D50724F5FE01DD
:10474000E81BF90BEF52FA4F3081202F332329F069
:10475000319F212D112411112F5F422F440F440F3F
:1047600027FD06C026FD08C0542F60E040E006C0CB
:10477000642F5FEF4FEF02C060E05FEFCE010E9459
:10478000501D2196D1CFDF91CF911F910F91FF90B6
:10479000EF90DF90CF90BF90AF909F908F90089553
:1047A000CF93DF93482F50E060E070E02AE084E789
:1047B00094E00E94CB1AEC0167E173E084E794E097
:1047C0000E94B61A8C0F9D1FDF91CF9108952F92F2
:1047D0003F924F925F926F927F928F929F92AF9291
:1047E000BF92CF92DF92EF92FF920F931F93CF93DE
:1047F000DF93CDB7DEB76C970FB6F894DEBF0FBE70
:10480000CDBF4C015A8349831F830E83FD82EC8206
:10481000CB82FC01408D518D4115510509F0A1C09D
:1048200080859185681779070CF05AC18285938538
:1048300049815A81481759070CF052C1D12CCB013C
:10484000AB8156E0A59F800D911D11241816190605
:104850000CF046C1C60133E0880F991F3A95E1F785
:10486000E981FA818E0F9F1F181619060CF038C1C6
:10487000D40157968C91811103C0203B08F02F5F23
:10488000B5E02B9F900111247D876C875B01212C63
:10489000F901E61BF70BF987E88729813A81285F40
:1048A0003F4F3B872A8735E0231641F0E885F9859D
:1048B000EA0DFB1DE153FA4F349001C0312C6980A1
:1048C0007A80230130FE12C0D401ED91FC91BB81AE
:1048D000B13031F40084F185E02D2E813F8116C086
:1048E0000288F389E02DEE80FF801AC0EE81FF81FF
:1048F0002C813D81E217F307D1F0D401ED91FC91B9
:10490000BB81B13041F40084F185E02DA301B501F4
:10491000C40109950CC00288F389E02DEC80FD806C
:1049200086019601A2016C857D85C40109953694A6
:10493000EFEF6E1A7E0A4C0C5D1C2A853B856216D1
:10494000730609F0BFCF23943FEFA31AB30A4C8537
:104950005D854C0D5D1D5D874C8756E02512A3CF0C
:10496000BFC0FA013496E4912E1BFA01329685916C
:104970009491E7E02E9F800D911D1124FA0125915D
:1049800034913B8B2A8BFC0125903490FC013296AC
:1049900034913887319644914A873196E491FC01ED
:1049A000359654915E87319684919B81923048F080
:1049B000A52F550FBB0BE82F082E000CFF0BFD8712
:1049C000EC87FB81CF2ED12CAC9D9001AD9D300D9D
:1049D000BC9D300D1124A901460F571F598B488BE0
:1049E0001C82A12C5E85E52F550FFF0B3F01660E43
:1049F000771E9885690F711DDB01AE0FBF1FB88F41
:104A0000AF8BE981FA81E80FF11D87FDFA95FA8FE6
:104A1000E98FFA85AF1608F063C08A2D90E04C85C7
:104A20005D85480F591F4C9D90014D9D300D5C9D3B
:104A3000300D112449815A81420F531F5F874E87E1
:104A4000488859887C8E6B8E5C8156195C8BA98D49
:104A5000BA8DA80FB91FBE8BAD8B8C89BB8D8B0F08
:104A6000EF89F88D2B8D3C8DE217F30799F1877054
:104A700041F4C1010196EA89FB89E20DF31DB4906E
:104A80001C01B7FE1EC0D401ED91FC91BB81B13079
:104A900061F40084F185E02D2E813F814D895E898E
:104AA0006B8D7C8DC40109950CC00288F389E02DC3
:104AB000EE80FF80860196014E855F85B201C401BC
:104AC0000995BB0CEB8DFC8D3196FC8FEB8F4C0C5C
:104AD0005D1CC3CFFC812885F20FFC83A39499CF82
:104AE0006C960FB6F894DEBF0FBECDBFDF91CF91AD
:104AF0001F910F91FF90EF90DF90CF90BF90AF90FC
:104B00009F908F907F906F905F904F903F902F90ED
:104B10000895CF93DF93282F30E0F901E554FA4F41
:104B20008491F901E955FA4FD491F901ED56FA4F04
:104B3000C491CC2391F081110E948622EC2FF0E0E9
:104B4000EE0FFF1FE757FA4FA591B491EC91ED23BB
:104B500081E090E021F480E002C080E090E0DF910D
:104B6000CF9108951F93CF93DF93282F30E0F90161
:104B7000E554FA4F8491F901E955FA4FD491F901BE
:104B8000ED56FA4FC491CC23C1F0162F81110E942B
:104B90008622EC2FF0E0EE0FFF1FE158FA4FA591AF
:104BA000B4919FB7F894111104C08C91D095D8237B
:104BB00002C0EC91DE2BDC939FBFDF91CF911F9160
:104BC0000895CF93DF9390E0FC01E955FA4F2491CB
:104BD000FC01ED56FA4F8491882361F190E0880F33
:104BE000991FFC01EB58FA4FC591D491FC01E15893
:104BF000FA4FA591B491611109C09FB7F8948881CB
:104C0000209582238883EC912E230BC0623061F4BF
:104C10009FB7F8948881322F309583238883EC9155
:104C20002E2B2C939FBF06C08FB7F894E8812E2BB4
:104C300028838FBFDF91CF9108958E3008F08E507A
:104C40008770806480937C0080917A008064809378
:104C50007A0080917A0086FDFCCF809178002091C7
:104C6000790090E0922B08958F929F92AF92BF921D
:104C7000CF92DF92EF92FF926B017C010E94AF22F4
:104C80004B015C01C114D104E104F104F1F00E9474
:104C9000AF22DC01CB0188199909AA09BB09883E1A
:104CA0009340A105B10570F321E0C21AD108E108D3
:104CB000F10888EE880E83E0981EA11CB11CC11477
:104CC000D104E104F10419F7DDCFFF90EF90DF90FC
:104CD000CF90BF90AF909F908F9008950196909342
:104CE000D0058093CF05861797072CF45093D005F5
:104CF0004093CF050895481759072CF47093D005B9
:104D00006093CF0508958617970741F48091CE05EB
:104D10008823B1F01092CE0589E00AC08417950768
:104D200079F48091CE05882359F01092CE0588E061
:104D30000E94E90566E970E080E090E00C9434267A
:104D400008952FB7F8946091C6057091C7058091BA
:104D5000C8059091C9052FBF08952F923F924F9299
:104D60005F926F927F928F929F92AF92BF92CF92FB
:104D7000DF92EF92FF920F931F93CF93DF9300D0B8
:104D800000D0CDB7DEB74C0169834A830E94A126CB
:104D90002B013C01C0905E04E0905D04EC0C0C2CF7
:104DA000000CDD08DC82CB820E2C000CFF08170102
:104DB0002C183D088B819C818E159F0508F061C0E1
:104DC0009A81992341F00E94D42281EDA82E85E09A
:104DD000B82E86011EC0E0915C0487E08E9FF00132
:104DE0001124EA5AFB4F6485758586850FEF2FEFF6
:104DF00040E00E94DA11E9CF9981992371F0EB81AB
:104E0000FC81E017F10780F00F5F1F4FFFEFAF1A33
:104E1000BF0A0E151F0580F30EC08B819C810817F9
:104E2000190790F7F501108240E050E060E0C801FA
:104E30000E94501DE9CF0E94141D0E94A1268B01E3
:104E40009C010419150926093709C401B1010E9402
:104E50004F33CB01A0E0B0E0081719072A073B0742
:104E600030F48B819C8101979C838B8304C00E94CA
:104E7000A1262B013C01EB81FC813196FC83EB8365
:104E800099CF0F900F900F900F90DF91CF911F91BE
:104E90000F91FF90EF90DF90CF90BF90AF909F90D9
:104EA0008F907F906F905F904F903F902F900895DC
:104EB0001F920F920FB60F9211242F933F938F934F
:104EC0009F93AF93BF938091C6059091C705A09122
:104ED000C805B091C9053091F00523E0230F2D37A7
:104EE00020F40196A11DB11D05C026E8230F0296EE
:104EF000A11DB11D2093F0058093C6059093C705B1
:104F0000A093C805B093C9058091CA059091CB05BF
:104F1000A091CC05B091CD050196A11DB11D809346
:104F2000CA059093CB05A093CC05B093CD05BF9156
:104F3000AF919F918F913F912F910F900FBE0F9046
:104F40001F9018958091590590915A05009739F056
:104F5000DC01ED91FC910088F189E02D0994089520
:104F6000789484B5826084BD84B5816084BD85B544
:104F7000826085BD85B5816085BD80916E00816050
:104F800080936E00109281008091810082608093F6
:104F900081008091810081608093810080918000F8
:104FA0008160809380008091B10084608093B10023
:104FB0008091B00081608093B00080917A0084601D
:104FC00080937A0080917A00826080937A00809149
:104FD0007A00816080937A0080917A008068809363
:104FE0007A001092C1000E948E08CFEFD0E06624B4
:104FF0006394712C42E0242E312C5EE0E52EF12CDE
:10500000A89582E995E00E946C1B83E795E00E94D9
:105010006C1B00915B0310915C030130110509F0DA
:10502000CEC280915D0390915E038836914021F459
:1050300010925E0310925D0360915D0370915E03B8
:105040006B5F7F4F70935E0360935D0380910401FB
:105050000E94CB0F8091590390915A03892B09F03C
:1050600046C00E94BC1180915C0406E1809F002D27
:10507000112410E061E070E080E090E00E944E1AA0
:10508000C8014196860F0E94E90570925A0360920A
:10509000590380915E0460915D04680F8F5F0E94E8
:1050A000B11284E1809304010E94A1266093C1059E
:1050B0007093C2058093C3059093C4051092580362
:1050C0000E94EE1060915D0370915E0384E10E9486
:1050D000CB0F0E94A305609157057091580580E0A1
:1050E00090E00E94342681E00E946D1341C200913D
:1050F0005603109157030630110509F043C0109173
:105100005C0487E0189FF0011124E15AFB4F908165
:105110008281218120934D0390934C0380934E0311
:1051200068E070E080E090E00E944E1A862F96E1E1
:10513000199F800D11248E5E0E94E9058CE291E09A
:105140000E94DC12809104018150809304016091DF
:105150005D0370915E030E94CB0F10910401812FBB
:105160000E948011111109C0F0925703E09256037A
:105170001092550310925403FBC1109257031092E2
:105180005603F6C109301105B9F510915C0427E00A
:10519000129FF0011124E15AFB4F908182812181FD
:1051A00020934D0390934C0380934E0368E070E08E
:1051B00080E090E00E944E1A862F96E1199F800DA4
:1051C00011248E5E0E94E90588EC90E00E94DC12BA
:1051D0008091040181508093040160915D0370917E
:1051E0005E030E94CB0F10910401812F0E94801159
:1051F000112309F4B9CFBCC10730110509F0B2C0C1
:1052000010915C0427E0129FF0011124EE59FB4F2E
:1052100090818281218120934D0390934C03809350
:105220004E0361E070E080E090E00E944E1A862F0D
:1052300096E1199F800D1124865E0E94E9058091F8
:10524000040181508093040100E010E060915D044E
:10525000E5E06E9F9001112480915E040217130710
:1052600008F05DC0C82ED12C20915E0480915D04B1
:1052700090E0820F911DC816D906E0F5C801B6016D
:105280000E944F339C01892B39F440914C0350917B
:105290004D0360914E0327C080914D0390E0B9010A
:1052A0000E944F336F3F710519F010F06FEF70E0FF
:1052B000E62F80914C0390E0B9010E944F336F3F7D
:1052C000710519F010F06FEF70E0462F80914E03DA
:1052D00090E0B9010E944F336F3F710519F010F053
:1052E0006FEF70E05E2FC6010E94501DFFEFCF1AD6
:1052F000DF0ABACF0E94141D60915D0425E0629F11
:10530000B001112480915305909154050E944F33B0
:1053100080E090E00E9434260F5F1F4F97CF9FEFF1
:10532000980F690F0E94B11210910401812F0E9401
:10533000801160915D0370915E03812F0E94CB0FFD
:1053400080910401811109C0F0925703E092560345
:1053500070925503609254030BC170925703609290
:10536000560306C10830110509F060C010915C04B5
:1053700087E0189FF0011124E15AFB4F9081828150
:10538000218120934D0390934C0380934E0361E061
:1053900070E080E090E00E944E1A862F96E1199FFF
:1053A000800D11248D5D0E94E90520910401822F5A
:1053B00090E0853091052CF04A972CF48BEF820F0A
:1053C00003C080E001C084E1809304010E94A12613
:1053D0004B015C012AE0AB01BC0184E794E00E9430
:1053E000CB1A67E173E084E794E00E94B61A2FE1DC
:1053F000D22E0E94A126681579058A059B0508F41E
:10540000A1C20E94A126AB01BC01481959096A0931
:105410007B0980914F0590915005A0E0B0E0841782
:105420009507A607B70708F0B7C28CC20A30110566
:10543000B1F40E94D4220E94141D809104018111B4
:1054400009C03092550320925403F0925703E09222
:1054500056038EC0109357030093560389C00B3038
:10546000110541F560915D0400915E04060F66959B
:1054700070E080E090E00E944E1AD62E10915E04FB
:1054800060915D04669570E080E090E00E944E1AA5
:105490000D19212F260FE0915C0487E0E89FF001B1
:1054A0001124EA5AFB4F64857585868541E00E9488
:1054B000DA115EC00531110549F4809154039091D1
:1054C0005503909357038093560352C00E30110535
:1054D00049F460915D0370915E03809104010E9424
:1054E000CB0F46C00131110519F40E94A30540C03D
:1054F00000311105E9F580910401282F30E02431B5
:10550000310514F48F5F01C084E180930401609140
:105510005D0370915E030E94CB0F10910401812FF7
:105520000E94801164E670E080E090E00E943426E2
:105530001431F1F480915C0406E1809F002D112468
:1055400010E061E070E080E090E00E944E1AC80137
:105550004E96860F0E94E90564EF71E080E090E0CE
:105560000E943426EFE0F0E0F0935703E0935603F7
:105570000E94A1260091C1051091C2052091C3058A
:105580003091C405061717072807390708F0D7C157
:105590000E94A1260091C1051091C2052091C3056A
:1055A0003091C405DC01CB01801B910BA20BB30B26
:1055B000893B9B40A105B10508F01FC3C0C1023063
:1055C000110501F58091590390915A03892B09F037
:1055D000B6C110935A030093590384E180930401E8
:1055E00083E00E94E90568E572E080E090E00E94B7
:1055F00034268FEF9FEF90935303809352030E94C2
:10560000EE209DC10115110509F08CC08091590350
:1056100090915A030197F1F40E94A1266093B1057D
:105620007093B2058093B3059093B40510925A031A
:105630001092590310925703109256030E941111B1
:1056400064EF71E080E090E00E94342610925003F5
:105650000E94C4118091590390915A03029741F519
:105660000E9469080E94111110925A031092590366
:105670000E94A1266093B1057093B2058093B30593
:105680009093B4056FEF8FEF0E94B11290915C047C
:1056900086E1989F802D11240E94DD200E94E9055B
:1056A000109250036CE271E080E090E00E9434269A
:1056B0000E94A1260091B1051091B2052091B30579
:1056C0003091B405DC01CB01801B910BA20BB30B15
:1056D000813E9349A440B10508F431C183E090E0D4
:1056E00090935C0380935B0310925A0310925903CA
:1056F00081E00E94E90564EF71E080E090E00E94A3
:10570000342681E00E94E90564EF71E080E090E0DA
:105710000E94342681E00E94E90564EF71E080E098
:1057200090E075C00430110509F074C080915903F0
:1057300090915A03009799F410935A0300935903D8
:105740008BE00E94E9056CED75E080E090E00E943E
:10575000342682E580934F030E94E905F0C0049748
:1057600009F0EDC084E10E941D2685E10E941D26FE
:1057700084E10E941D268C0185E10E941D26081BE4
:10578000190B17FF03C01195019511092FE1209FF7
:10579000C001219F900D112460915B0470E00E9474
:1057A00063332FEF269FC001279F900D1124811591
:1057B00094462CF584E10E941D268C0185E10E940F
:1057C0001D26081B190B17FF03C011950195110920
:1057D0002FE1209FC001219F900D112460915B0457
:1057E00070E00E9463332FEF269FC001279F900D2A
:1057F000112464E670E00E946333CB0102C08FEF96
:1058000090E00E94811D64E670E080E090E00E94DC
:10581000342695C00330110509F091C00E94C411CF
:1058200010927A000FB6F894A89580916000886174
:1058300080936000109260000FBE60E0809185024E
:105840000E94B22580916B00806180936B0061E0C3
:1058500088E00E94E12560E088E00E94B22561E0D6
:1058600087E00E94E12560E087E00E94B22561E0C8
:1058700081E10E94B2256CE271E080E090E00E943C
:10588000342661E080E10E94B225809164008F6E31
:105890008093640083B7817F846083BF83B7816016
:1058A00083BF80E685BF80E485BF8BB387608BBBF9
:1058B0008091680087608093680083B7816083BFB0
:1058C000889583B78E7F83BF83B78E7F83BFE89829
:1058D00084E993E1909301018093000183B78E7F67
:1058E00083BF8091640080718093640060E080E1F8
:1058F0000E94B22560E081E10E94B22561E088E06B
:105900000E94E12560E087E00E94E125A89599E2E8
:1059100088E10FB6F894A895809360000FBE90932D
:105920006000A8950E948E0810925C0310925B03A1
:1059300010935A030093590387E880937A000E94DA
:1059400097145ECB80915E0460915D04680F0E94A5
:10595000B1120E94A1264B015C018FE1D82E0E945A
:10596000A126681579058A059B0508F423C10E94C4
:10597000A126AB01BC01481959096A097B0980912C
:10598000510590915205A0E0B0E084179507A60755
:10599000B70708F07EC00EC184E10E941D2685E194
:1059A0000E941D2684E10E941D268C0185E10E9433
:1059B0001D26081B190B17FF03C01195019511092E
:1059C000D09EC001D19E900D112460915B0470E0C7
:1059D0000E9463336F3F710511F00CF057C084E1F2
:1059E0000E941D268C0185E10E941D26081B190BB3
:1059F00017FF03C0119501951109D09EC001D19EDA
:105A0000900D112460915B0470E00E9463338B0160
:105A100061E089E00E94B225C0905E042C2D30E048
:105A200040915E0480915D0490E0840F911D019788
:105A30002817390744F540914D03409FC001419F0D
:105A4000900D1124BE010E944F33E62F40914E036A
:105A5000409FC001419F900D1124BE010E944F3311
:105A6000F62F40914C03409FC001419F900D11249F
:105A7000BE010E944F33462F5E2F6F2FC9010E9437
:105A8000501DC394CBCF0E94141DB3CC0FEF10E078
:105A9000BFCF84E10E941D2685E10E941D2684E17E
:105AA0000E941D268C0185E10E941D26081B190BF2
:105AB00017FF03C0119501951109D09EC001D19E19
:105AC000900D112460915B0470E00E9463336F3F7E
:105AD000710511F00CF06BC084E10E941D268C0151
