:100000000C9445060C94FC1F0C94D51F0C946C1694
:100010000C946C160C946C160C946D060C946D0676
:100020000C946D060C946D060C946D060C946D0684
:100030000C946D060C946D060C946D060C946D0674
:100040000C9450290C946D060C94BB200C949520B4
:100050000C946D060C946D060C946D060C946D0654
:100060000C943E150C946D06A70EAD0EB20EE60E66
:10007000B70EBB0EBF0EEE0EC60ECD0ED10ED30EBA
:10008000D70EDD0EE40EE60EEE0E5B12FC1294129D
:100090007D124112C212E512CB120413F5120100B7
:1000A00002000400080010002000400080008100D1
:1000B000420024001800240042008100AA005500DC
:1000C000C3003000000041757820627574746F6E53
:1000D00020636C69636B00000000000700010000F2
:1000E00003070400F9030005050600F807000809E6
:1000F0000900F8100008090900F8190009090A00A8
:10010000F8240009090A00F82F0002050300F7315E
:100110000002090300F8340002090300F837000563
:10012000050600F83B0006070700F941000104023C
:1001300000FD420006010700FC430004040400FD2A
:10014000450002090300F8480009090A00F85300B5
:1001500008090900F85C0008090900F865000809A9
:100160000900F86E0008090900F87700080909007D
:10017000F8800008090900F8890008090900F892C8
:100180000009090A00F89D0008090900F8A6000402
:10019000050500FCA90001090200F8AB00060607EE
:1001A00000FAB00006040700FAB30006060700FADA
:1001B000B80003090400F8BC0008090900F8C500EC
:1001C0000A090B00F8D1000A090B00F8DD00060946
:1001D0000700F8E40008090900F8ED0009090A0021
:1001E000F8F80009090A00F803010B090C00F810DF
:1001F0000108090900F8190103090400F81D0109A3
:10020000090A00F828010B090B00F8350108090953
:1002100000F83E0108090900F8470109090A00F839
:1002200052010B090C00F85F0108090900F8680188
:1002300009090A00F8730108090900F87C01090995
:100240000A00F8870109090A00F892010A090B005F
:10025000F89E0109090A00F8A9010B090C00F8B67B
:100260000109090A00F8C10109090A00F8CC010BCB
:10027000090B00F8D90102090300F8DC01020903A7
:1002800000F8DF0102090300F8E20103010400F6AF
:10029000E3010801090002E40101020200F5E501A1
:1002A0000A090B00F8F1010A090B00F8FD01060923
:1002B0000700F8040208090900F80D0209090A00FC
:1002C000F8180209090A00F823020B090C00F8309B
:1002D0000208090900F8390203090400F83D02097F
:1002E000090A00F848020B090B00F8550208090931
:1002F00000F85E0208090900F8670209090A00F817
:1003000072020B090C00F87F0208090900F8880244
:1003100009090A00F8930208090900F89C02090972
:100320000A00F8A70209090A00F8B2020A090B003C
:10033000F8BE0209090A00F8C9020B090C00F8D638
:100340000209090A00F8E10209090A00F8EC020BA7
:10035000090B00F8F90208120800F70B03090A0A52
:1003600000F7170308120800F72903090A0900F724
:100370002753A09CA98C00183C427E66DB7E9966C0
:1003800048FF494A0604081830746E2715F9CBFC5B
:1003900032190F8083E39148A6D148A4721F80D5FB
:1003A00040AAEA8055D54077BFE70010413F104191
:1003B00000F0FCBBBB556A807F60E030188C060300
:1003C000837F00F808080808080808FF7FC181013A
:1003D00001FF0000FF7FC18101FD0181C17F81819B
:1003E0008181FF01010101FF0000FF010181C17F47
:1003F000FF00007FC18181C17FFF01010101010177
:1004000001017F40E0303FF40E03037F007FC18194
:1004100081817F0000FF8423F0FF800DEC381C10E9
:10042000FC003FC0E047F200F69249607FC684B806
:1004300080B884C67FC05812047F0007F30581C0CE
:10044000403F102C04003F800C05023F0004106D5B
:10045000B6D82080FFC040603E10180804F0A854B1
:100460006B249259388C46000844320F01F844221C
:1004700011FF80FF682D81B0320660C418C30FE001
:10048000FF0000007E000000FFDEC92480C02018AD
:100490000F02F98040300F807FD80A01C0080100A8
:1004A000201E027FC080808081838C98E0C0F0187D
:1004B000080C04040602FF119C4A2516CA25138D58
:1004C00083801F0230C210660480901E01FFE08707
:1004D00085858181818181FF7FE060201008040291
:1004E000010780FFC04060301018080481C1A1904E
:1004F0008884C6C74CC800080402010C8A48A83C7E
:100500000C00F0E2384E0380E0380F037F80C1B06A
:100510008C83808040201008007FD80E00C0180314
:1005200000600E037FC0180E0D06C223190582FF5E
:1005300080C7A6DA4C62219058380C00801FC20494
:1005400040480500201C03FFE0BAAB80AA55407567
:100550005740E0FFC080E02813F8003F8812028077
:10056000C03F102C04003F800C05023F0082082D84
:10057000B6D04104FF0102067C0818103083E391D5
:1005800048A6D148A4721100080442216FC4422138
:1005900010FF80BFF61A024048190220C410FE0066
:1005A000FF0000007E000000FF3E9249200080C056
:1005B000C1EFA0101808FC007FD80A0180300600A7
:1005C000E01E027FC001010141E1311D07030F1848
:1005D000103020606040FF466323916894CA47A1B1
:1005E00070801F0230C210660480901E01FFE0611F
:1005F000E1A181818181C17F7FE060300804020137
:10060000807800FF010206040818103040904C2347
:10061000108C259A770D80080402010C8A48A83CAA
:100620000C0087E1388E0380E0380F037F80C1B073
:100630008C83808040201008007FD80E00C01803F3
:1006400000600E037FC0180E0D06C223190582FF3D
:1006500080F8A4DB4C62219058380C000063FCC188
:10066000B0300600E01C03FFE0030F1F003F2163D2
:100670006F7F7E79372F7FEFA76E3CFFC060301809
:100680000C06030180FFC0A0F0F800FA84C6F6FE55
:100690007E9EEAF4FEF7E3763CFFC06030180C065D
:1006A000030180FFC00007F00000781E0000C76152
:1006B00000033F7CC0047F7F200DFF7FD013FF7FAE
:1006C000C817FF7FE420074664600346665FF36651
:1006D00062400766655007666597FF67FD97FF6094
:1006E0000597FF63FD9FFF7FFD9FFF7FFD9FFCFF41
:1006F000FDDFFF7FFD5FFE7FF95FF0001B4800001C
:1007000012260003F4170007E413FC0FCC09FE0FB8
:100710009004FE0F30021E044001CC01C0006006B0
:1007200000001FFC007003D700207E0E00000000B8
:10073000240027002A0000000000250028002B00CC
:10074000000000002300260029000404040404041F
:100750000404020202020202030303030303010270
:10076000040810204080010204081020010204083F
:100770001020000000080002010000030407000030
:1007800000000000000000000000003E5B4F5B3EE8
:100790003E6B4F6B3E1C3E7C3E1C183C7E3C181C46
:1007A000577D571C1C5E7F5E1C00183C1800FFE73D
:1007B000C3E7FF0018241800FFE7DBE7FF30483AE3
:1007C000060E2629792926407F050507407F052545
:1007D0003F5A3CE73C5A7F3E1C1C08081C1C3E7FCD
:1007E00014227F22145F5F005F5F06097F017F0094
:1007F0006689956A606060606094A2FFA2940804B4
:100800007E040810207E201008082A1C08081C2AD4
:1008100008081E101010100C1E0C1E0C30383E382C
:1008200030060E3E0E06000000000000005F0000D3
:100830000007000700147F147F14242A7F2A122344
:100840001308646236495620500008070300001C54
:100850002241000041221C002A1C7F1C2A08083E5D
:100860000808008070300008080808080000606070
:100870000020100804023E5149453E00427F4000DE
:1008800072494949462141494D331814127F1027B6
:10089000454545393C4A4949314121110907364905
:1008A000494936464949291E0000140000004034D9
:1008B00000000008142241141414141400412214DE
:1008C0000802015909063E415D594E7C1211127C05
:1008D0007F494949363E414141227F4141413E7F66
:1008E000494949417F090909013E414151737F0846
:1008F00008087F00417F41002040413F017F0814EC
:1009000022417F404040407F021C027F7F0408104C
:100910007F3E4141413E7F090909063E4151215E2A
:100920007F09192946264949493203017F01033FBE
:100930004040403F1F2040201F3F4038403F63144D
:1009400008146303047804036159494D43007F414F
:1009500041410204081020004141417F040201028C
:1009600004404040404000030708002054547840B1
:100970007F284444383844444428384444287F3845
:100980005454541800087E090218A4A49C787F08C7
:1009900004047800447D40002040403D007F102842
:1009A000440000417F40007C047804787C08040403
:1009B000783844444438FC1824241818242418FC9B
:1009C0007C08040408485454542404043F44243C40
:1009D0004040207C1C2040201C3C4030403C4428AF
:1009E0001028444C9090907C4464544C4400083649
:1009F00041000000770000004136080002010204B7
:100A0000023C2623263C1EA1A161123A4040207AD6
:100A1000385454555921555579412254547842211E
:100A20005554784020545579400C1E527212395555
:100A30005555593954545459395554545800004552
:100A40007C410002457D420001457C407D1211122F
:100A50007DF0282528F07C545545002054547C54C2
:100A60007C0A097F4932494949323A4444443A327E
:100A70004A4848303A4141217A3A42402078009D24
:100A8000A0A07D3D4242423D3D4040403D3C24FFD0
:100A90002424487E4943662B2FFC2F2BFF0929F67F
:100AA00020C0887E090320545479410000447D41D0
:100AB0003048484A32384040227A007A0A0A727D29
:100AC0000D19317D2629292F282629292926304844
:100AD0004D4020380808080808080808382F10C8B2
:100AE000ACBA2F102834FA00007B000008142A1436
:100AF0002222142A14085500550055AA55AA55AAB1
:100B0000FF55FF55FF000000FF00101010FF0014FC
:100B10001414FF001010FF00FF1010F010F0141458
:100B200014FC001414F700FF0000FF00FF1414F47D
:100B300004FC141417101F10101F101F1414141F7E
:100B400000101010F0000000001F101010101F10F7
:100B5000101010F010000000FF10101010101010F6
:100B60001010FF10000000FF140000FF00FF000045
:100B70001F10170000FC04F414141710171414F4B9
:100B800004F40000FF00F714141414141414F700F4
:100B9000F7141414171410101F101F141414F41445
:100BA0001010F010F000001F101F0000001F1400B4
:100BB0000000FC140000F010F01010FF10FF1414DF
:100BC00014FF141010101F00000000F010FFFFFFB2
:100BD000FFFFF0F0F0F0F0FFFFFF0000000000FF6B
:100BE000FF0F0F0F0F0F3844443844FC4A4A4A3471
:100BF0007E02020606027E027E0263554941633888
:100C000044443C04407E201E2006027E020299A538
:100C1000E7A5991C2A492A1C4C7201724C304A4D96
:100C20004D303048784830BC625A463D3E494949CB
:100C3000007E0101017E2A2A2A2A2A44445F444474
:100C400040514A444040444A51400000FF0103E003
:100C500080FF000008086B6B083612362436060F3A
:100C6000090F06000018180000001010003040FFA7
:100C70000101001F01011E00191D1712003C3C3C20
:100C80003C000000000055309A2911241FBECFEF10
:100C9000D8E0DEBFCDBF14E0A0E0B1E0E2EEF7E6C1
:100CA00002C005900D92AA37B107D9F727E0AAE74D
:100CB000B4E001C01D92A932B207E1F716E0C4E426
:100CC000D6E004C02197FE010E94B832C334D10798
:100CD000C9F70E94A8290C94E4330C940000682FF3
:100CE00070E040E050E086E00E944E220E948622A2
:100CF00062E370E080E090E00C942C288EE4809316
:100D00007C0080917A00806480937A0080917A00E0
:100D100086FDFCCF209178003091790040E050E0D2
:100D200060E078E980E190E00E942D32CA01B901CB
:100D30006B5F7F4F8F4F9F4F2AE030E040E050E0E5
:100D40000E942D32C9018C52914067E070E00E94F0
:100D5000A4328AE0282F269FC001279F900D1124DE
:100D60000C94022340E050E060E070E08EE00E94CE
:100D70004E220C948622682F70E040E050E088E01C
:100D80000E944E220C948622682F70E040E050E0D2
:100D900083E00E944E220C948622CF92DF92EF9243
:100DA000FF92CF93E0909104F090920421E0E2163C
:100DB000F10409F052C00E9499286093F5067093DF
:100DC000F6068093F7069093F80610928E048091B1
:100DD0008C0490918D04009719F486E090E005C092
:100DE0008130910539F487E090E090938D048093F1
:100DF0008C0448C28230910519F488E090E0F5CF68
:100E00008F30910529F480918A0490918B04EDCF65
:100E10009C012D50310922303105B8F480919005A4
:100E200096E1899FE02C1124F12C61E070E080E0D4
:100E300090E00E94BB1FC7014F96860F0E94C40618
:100E400064EF71E080E090E0B8C1419709F01AC208
:100E5000109292041092910412C082E0E816F104FC
:100E600009F0DCC180918804909189048530910556
:100E700059F483E090E09093920480939104F0926F
:100E80009004E0928F04FEC18430910529F5809191
:100E90008F054EE150E065E070E090E00E9466282A
:100EA0002091FB063091FC0620938F0544E6429F7B
:100EB000C001439F900D11246EE170E00E94A432A6
:100EC000CB010E94022380918F05CF91FF90EF907C
:100ED000DF90CF900C946F068230910539F58091A8
:100EE00086044FE050E060E070E0082E000C990BA3
:100EF0000E9466288091FB06809386040E949D0EC6
:100F00008091900527E0829FC0011124FC01E657E3
:100F1000FA4F209183042287209182042187309107
:100F200084043387FC01ED56FA4F29C083309105C4
:100F3000E1F5809186044FE050E060E070E0082E1B
:100F4000000C990B0E9466288091FB068093860412
:100F50000E949D0E8091900527E0829FC001112480
:100F6000FC01E657FA4F20918304258720918204E3
:100F70002487309184043687FC01EA56FA4F818138
:100F8000809383044091920520919105240F215074
:100F9000609182047091830480918404CF91FF90CA
:100FA000EF90DF90CF900C942E1187309105D9F5FA
:100FB00081E08093FA06809191054FE150E060E076
:100FC00070E090E00E9466286091FB0660939105B6
:100FD00088EA95E00E947C2420919105222389F0E3
:100FE00040919205240F2150E091900587E0E89F01
:100FF000F0011124E657FA4F6185728583850E94BE
:101000002E1180919105811103C068E280E004C037
:101010009091920568E2890FCF91FF90EF90DF9059
:10102000CF900C942D108630910529F581E08093A6
:10103000FA06809192054AE050E060E070E090E0AE
:101040000E9466286091FB066093920588EA95E00D
:101050000E947C2420919205222339F0215040E007
:1010600060E070E08AE00E942E1180919205882352
:1010700061F268E2D1CF009709F0A6C01092FA069B
:101080008091900542E050E060E070E090E00E94C6
:101090006628C090FB06D090FC06C09290050D2CEF
:1010A000000CEE08FF08F7FE0EC06DE288EA95E03E
:1010B0000E94951944275527BA014C195D096E09FC
:1010C0007F092AE003C02AE0B701A60188EA95E07B
:1010D0000E94382067E973E088EA95E00E942320A7
:1010E0008091FB069091FC06909382068093810686
:1010F00081309105E9F00297B1F188E097E0909393
:1011000084068093830680E293E090938606809322
:1011100085068CE697E0909388068093870684EF97
:1011200091E090938A068093890684E89CE033C01E
:101130008AE595E0909384068093830680E293E0AD
:1011400090938606809385068CE697E090938806B8
:10115000809387068CE291E090938A0680938906BB
:101160008FE498E018C08EEE92E09093840680930E
:101170008306909386068093850684EF91E0909392
:101180008806809387068CEB92E090938A06809382
:1011900089068FEF91E090938C0680938B06909157
:1011A000900586E1989F802D11240E9408120E94CC
:1011B000C40666E970E080E090E0CF91FF90EF9088
:1011C000DF90CF900C942C28019709F05BC0E09140
:1011D0009005C7E0CE9FF0011124E657FA4F8785AE
:1011E00042E050E060E070E090E00E946628E0910C
:1011F0009005CE9FF0011124E657FA4F8091FB062F
:1012000087870E9430186FEF7FEF80910401CF91A4
:10121000FF90EF90DF90CF900C94E616E114F1046C
:1012200079F481E090E0909392048093910410927D
:10123000900410928F0410928D0410928C0422C09E
:1012400024E0E216F104F1F480918104882349F04E
:1012500010928104CF91FF90EF90DF90CF900C948B
:10126000B20681E08093810440E050E060E070E0ED
:101270008DE00E944E22CF91FF90EF90DF90CF90B3
:101280000C948622CF91FF90EF90DF90CF9008953D
:10129000EF92FF920F931F93CF93DF9300917F0400
:1012A00010918004CAE8D5E00A5815407801EC0E88
:1012B000FD1EC7010E9417326991681719F0C70116
:1012C0000E941F3285E0C83AD80781F7DF91CF919D
:1012D0001F910F91FF90EF900895CF92DF92FF92B0
:1012E0000F931F93CF93DF930E94342488E1809360
:1012F000B800E091B805F091B90582E08083E091F3
:10130000B405F091B5051082E091B605F091B705EE
:1013100080E180831092C005E091BC05F091BD058D
:1013200086E08083E091BA05F091BB058081806101
:101330008083E091BA05F091BB058081886080834D
:10134000E091BA05F091BB05808180688083E091CF
:10135000BA05F091BB0580818F7D808360E080E1DC
:101360000E94AA2760E081E10E94AA2720917C04C4
:1013700030917D0480917A0490917B04281739077D
:1013800031F480E290E090937B0480937A04809122
:101390007A0490917B049C01225E3F4F30937D0440
:1013A00020937C049093800480937F046EE973E023
:1013B00088EA95E00E9423208EE190E00E94662456
:1013C00080917F04909180040E94662460917F0444
:1013D000709180044EE150E08AE895E00E94073267
:1013E000CAE8D5E00AE913E06E01FF24F394D601C0
:1013F0009D916D01F80181918F01981739F064EB8F
:1014000073E088EA95E00E948120F12CF3E00D3929
:101410001F0769F76AE875E088EA95E00E94812075
:10142000F11023C08CE480938A0580E380938B05C0
:1014300085E380938C05109290058FE080938F0553
:1014400084E080939105809392052FE935E084E153
:101450008A8719861B861D861C868E871F8627967F
:101460002C173D07A9F70E94480980919005282F65
:1014700030E030938206209381068130E9F082309B
:10148000B1F188E097E0909384068093830680E230
:1014900093E090938606809385068CE697E0909380
:1014A00088068093870684EF91E090938A06809364
:1014B000890684E89CE033C08AE595E09093840631
:1014C0008093830680E293E090938606809385065E
:1014D0008CE697E090938806809387068CE291E0F3
:1014E00090938A06809389068FE498E018C08EEE68
:1014F00092E090938406809383069093860680936F
:10150000850684EF91E090938806809387068CEBA4
:1015100092E090938A06809389068FEF91E09093F2
:101520008C0680938B06A89599E288E10FB6F89413
:10153000A895809360000FBE90936000A8958AB133
:1015400088668AB984B18E6284B98BB187798BB988
:1015500085B1817D85B9EBE6F7E0E491E093F4068F
:1015600087E597E0FC012491E22FF0E0EE0FFF1FEA
:10157000EA5CF84F259134913093F1062093F00600
:10158000FC018491E82FF0E0EE0FFF1FE45DF84FBF
:10159000859194919093F3068093F2060E94400FF8
:1015A000E091900587E0E89FF0011124ED56FA4F95
:1015B000908182812181209383049093820480937F
:1015C00084040E94400F82E00E941528BC01990FFC
:1015D000880B990B611571058105910511F00E9429
:1015E000FE3162E08CE00E94D92762E08BE00E942D
:1015F000D92728EC30E03093C9062093C80688E547
:1016000092E09093CB068093CA064DEC56E050933F
:10161000D4064093D30645E053E15093DA06409355
:10162000D9064FEA50E15093DC064093DB064AEAC4
:101630005DE05093DE064093DD063093AA062093CA
:10164000A9069093AC068093AB068FE891E1909346
:10165000B5068093B4068AE99DE09093B70680931F
:10166000B60681EF9DE09093BB068093BA0684E8AE
:101670009DE09093BD068093BC0661E081E10E94ED
:10168000D92761E080E10E94D92760E081E10E94D2
:10169000AA2760E080E10E94AA2780916D00806106
:1016A00080936D0080916B00806180936B006CE291
:1016B00071E080E090E00E942C2880918D0690914E
:1016C0008E06009739F0DC01ED91FC910088F189DC
:1016D000E02D09958FE190E00E94BE32EC011B8263
:1016E0001A8288EE93E0A0E0B0E08C839D83AE8305
:1016F000BF8387E193E0998388831F8A1E8A198EAE
:10170000188E1B8E1A8E1D8E1C8E6E8D6E7F6D7FB9
:101710006E8F6695617081E0682788E00E94AA2735
:1017200061E088E00E94D927E6E6F7E0E491E88BE3
:10173000E2E5F7E0E491F0E0EE0FFF1FEA5CF84F1E
:10174000859194919A8B898B60E087E00E94D927DC
:101750008E8D81FD04C061E087E00E94AA2787E0AA
:101760008C87E5E6F7E0E491ED87E1E5F7E0E491C9
:10177000F0E0EE0FFF1FE05CF84F859194919F879A
:101780008E87D0938E06C0938D0681EA91E09D8F5F
:101790008C8F2DEB30E03F8B2E8B2BE931E0398F96
:1017A000288F2CE231E03B8F2A8F20916800246043
:1017B000209368002DE630E03C8B2B8B20E82D8BAE
:1017C0000197F1F7E0919504F0919604CE17DF07A9
:1017D000D1F0309739F0A389B4899C91858980959F
:1017E00089238C938E8D8E7F8E8F1092930410920E
:1017F0009404D0939604C0939504EB89FC8990815E
:101800008D89892B808368EC70E080E090E00E94F5
:101810002C2880918F05803148F48FE00E946F065C
:1018200068EC70E080E090E00E942C288AE00E9442
:10183000C40662E573E080E090E00E942C281092DC
:1018400092041092910483E090E09093900480932E
:101850008F0410928D0410928C040E94992860933A
:10186000E5067093E6068093E7069093E80680917C
:101870008F050E946F0668EE73E080E090E00E94A2
:101880002C2882E080936E068CE380936D06809115
:101890006F068F3F09F4BDC061E0809171060E9420
:1018A000D92761E0809173060E94D9278091730641
:1018B000082E000C990BFC01E65BF84FE491F0E078
:1018C000EE0FFF1FEA5CF84F2591349130937A06B2
:1018D00020937906FC01E25AF84FE491E0937F06E9
:1018E00080917106082E000C990BFC01E65BF84F05
:1018F000E491F0E0EE0FFF1FEA5CF84F2591349180
:1019000030937C0620937B06FC01E25AF84FE49169
:10191000E09380068091740681113EC061E0809161
:101920006F060E94D92761E0809170060E94D92736
:1019300080917006082E000C990BFC01E65BF84FB5
:10194000E491F0E0EE0FFF1FEA5CF84F259134912F
:101950003093780620937706FC01E25AF84FE49121
:10196000E0937E0680916F06082E000C990BFC0117
:10197000E65BF84FE491F0E0EE0FFF1FEA5CF84FF2
:10198000259134913093760620937506FC01E25A36
:10199000F84FE491E0937D0680917406882309F462
:1019A0003AC0CFB7F89480917E04811127C0E4E556
:1019B000F7E08491E8E6F7E09491E82FF0E0EE0F8D
:1019C000FF1FE45DF84FA591B491EC91E92321F458
:1019D00061E08AE00E94AA2761E08AE00E94D9279C
:1019E0008CB580618CBD8CB580648CBD61E08DE070
:1019F0000E94D92761E08BE00E94D92780917E0464
:101A00008F5F80937E04CFBF80E58CBD81E08DBD6C
:101A100002C00E9434248091720687FD1EC061E0DE
:101A20000E94D92761E0809172060E94AA2761E096
:101A300070E080E090E00E942C2860E080917206C7
:101A40000E94AA276AE070E080E090E00E942C28C3
:101A500061E0809172060E94AA278EEA0E945823B4
:101A600085ED0E94582380E80E94582388EA0E944E
:101A700058238FE10E94582383ED0E94582380E071
:101A80000E94582380E40E9458238DE80E94582326
:101A900084E10E94582380E20E94582380E00E9443
:101AA000582381EA0E94582388EC0E9458238AED2B
:101AB0000E94582382E00E94582381E80E94582304
:101AC0008FE80E94582389ED0E94582381EF0E94DD
:101AD00058238BED0E94582380E40E94582384EA07
:101AE0000E94582386EA0E9458238EE20E945823BF
:101AF0008FEA0E945823DF91CF911F910F91FF90A1
:101B0000DF90CF900C948918809191049091920469
:101B1000019779F480918C0490918D040F9702972E
:101B200040F480918A0490918B0490938D0480936B
:101B30008C040895809191049091920481309105D4
:101B400041F4109292041092910490939004809327
:101B50008F040895CF93DF93809191049091920424
:101B60000197E1F50E9499286093F5067093F606B7
:101B70008093F7069093F80610928E0480918C045F
:101B800090918D04009719F489E090E005C08230AF
:101B9000910539F48AE090E090938D0480938C0451
:101BA0001DC00D970297D0F480919005C6E18C9FDF
:101BB000C02D1124D0E061E070E080E090E00E9450
:101BC000BB1FCE014F96860F0E94C40664EF71E0E2
:101BD00080E090E0DF91CF910C942C28DF91CF91A1
:101BE000089580919104909192048230910549F476
:101BF00010929204109291049093900480938F0419
:101C0000089581309105C9F40E9499286093F506E2
:101C10007093F6068093F7069093F80610928E0460
:101C200080918C0490918D040E9709F580E190E0ED
:101C300090938D0480938C040895009759F484E068
:101C400090E09093920480939104109290041092EB
:101C50008F0408958430910551F4109292041092EB
:101C600091049093900480938F040C94B20608958D
:101C7000EF92FF920F931F93CF93DF93EC016111CB
:101C80000E94292481E090E0909366068093650687
:101C9000909364068093630680936706E0919005B5
:101CA00087E0E89FF0011124E657FA4F87858130DD
:101CB000C9F41092660610926506109260061092A2
:101CC0005F068AE190E09093620680936106E12CC2
:101CD000F12C09E110E026E430E04BE050E060E058
:101CE00070E01AC010926406109263068AE290E0D7
:101CF0009093600680935F0680E190E09093620687
:101D000080936106E12CF12C09E110E020E330E042
:101D10004BE050E065E270E083E596E00E947F1DB5
:101D2000BE0183E596E00E942320DF91CF911F91B1
:101D30000F91FF90EF900C94A12390E081319105D9
:101D400008F052C0FC01EC5CFF4F0C94B83286EEF8
:101D500080938304109282043EC086EE80938304B5
:101D600089E337C086EE8093830487E932C08EE42E
:101D70008093830402C01092830486EE2AC01092DE
:101D8000830486EE809382048EE433C01092830431
:101D900086EE8093820480E92CC01092830486EE44
:101DA00026C08BE101C080E58093830419C086EED4
:101DB00080938304109282041CC086EE8093830477
:101DC000109282048BE015C086EE0FC086EE8093E1
:101DD00083048093820410928404089510928304F3
:101DE0001092820486EE05C084E68093830480937B
:101DF0008204809384040895EF92FF920F931F93BF
:101E0000CF93082F6091920570E084E190E00E94EA
:101E1000A4327B01C0E010E08C2F0C2E000C990B3B
:101E20002091920530E082179307DCF4E89E900140
:101E3000E99E300DF89E300D1124A801421B530B72
:101E40009A0157FD07C04531510514F024E130E0F7
:101E5000522F01C050E040E060E00E94D122CF5FED
:101E6000DBCFCF911F910F91FF90EF900C949522B3
:101E700061E085E00E94AA2761E086E00C94AA2731
:101E800061E08DE00E94AA2764E670E080E090E0C7
:101E90000E942C2860E085E00E94AA2760E086E08E
:101EA0000E94AA2760E089E00C94AA27BF92CF92F3
:101EB000DF92EF92FF920F931F93CF93DF93D62E73
:101EC000E72E182FF42EB22E809191059FEF29173F
:101ED000A1F00F3F91F0021784F0282F30E04B2D36
:101EE0000B2C000C550B241735073CF0402F002E0F
:101EF000000C550B2417350724F4B09092050B2DD8
:101F0000080F84E10E94152885E10E94152884E1CC
:101F10000E941528EC0185E10E9415289E01281BCE
:101F2000390B37FF03C03195219531094FE1429FAD
:101F3000C001439F900D112460918F0570E00E94B5
:101F4000A4326F3F710509F0E4F484E10E94152882
:101F5000EC0185E10E9415289E01281B390B37FFF3
:101F600003C03195219531094FE1429FC001439F44
:101F7000900D112460918F0570E00E94A4329B01A6
:101F800002C02FEF30E0E29EC001E39E900D1124CD
:101F9000EFEFF0E0BF010E949032E62ED29EC0012A
:101FA000D39E900D1124BF010E949032D62E129F15
:101FB000C001139F900D1124BF010E949032D62FB3
:101FC000CB2D002E000C110B8C2F90E00817190759
:101FD0003CF04D2D5E2D6D2F0E94D122CF5FF4CFAE
:101FE0000E94B0312AE030E040E050E00E942D3203
:101FF0006130710581059105C9F4C0901003D0903E
:102000001103E0901203CB2DBB0CDD0BB8016C1B50
:102010007D0B072E000C880B990B0E94BB1FCE0175
:10202000860F971F6E2DA6010E94D122FF2059F026
:10203000DF91CF911F910F91FF90EF90DF90CF90A4
:10204000BF900C949522DF91CF911F910F91FF903B
:10205000EF90DF90CF90BF9008950F931F93CF9391
:10206000DF9387FD02C067FF0DC0C0E0D0E040E015
:1020700050E060E0CE010E94D1222196C932D10504
:10208000B1F710C0C82F062F660F110B8C2F90E0F0
:10209000081719073CF040E050E060E00E94D122B0
:1020A000CF5FF4CFDF91CF911F910F910C949522C8
:1020B000EF92FF920F931F93CF93DF937C0161E028
:1020C00089E00E94AA270091920510E09091920564
:1020D00080919105C92FD0E09E01280F311D021774
:1020E000130770F5209192058091910590E0820F81
:1020F000911DC817D90798F40C171D0729F040E067
:1021000050E060E0CE0107C050918304409182040A
:1021100060918404C8010E94D1222196E3CF0E94DD
:1021200095226091910570E0660F771FC7010E94AC
:10213000903280E090E00E942C280F5F1F4FC6CFA6
:10214000890F8150682F0E942D1060E089E0DF9197
:10215000CF911F910F91FF90EF900C94AA270F93AE
:102160001F93CF93DF93009191041091920401305B
:10217000110509F06EC00E9499286093F5067093CE
:10218000F6068093F7069093F80610928E048091DD
:102190008C0490918D048930910529F410928D045E
:1021A00010928C0456C08B30910539F580919005C2
:1021B000C6E18C9FC02D1124D0E061E070E080E08A
:1021C00090E00E94BB1FCE018296860F0E94C4063B
:1021D00040E060E080ED97E00E94A52810938D0418
:1021E00000938C048091920560919105680FDF91B6
:1021F000CF911F910F910C942D108A309105F9F415
:1022000082E090E090938D0480938C0441E060E044
:102210008091890690918A060E94A5280E94B206A4
:102220008091920560919105680F0E942D1060E0E9
:1022300089E0DF91CF911F910F910C94AA270F97FE
:1022400041F480918A0490918B0490938D04809343
:102250008C04DF91CF911F910F910895CF92DF925F
:10226000EF921F93CF93DF936B01E82E4F3F19F44A
:102270002F3F89F404C0241714F04A32C4F0C0E0A0
:10228000D0E06E2DA601CE010E94D1222196C93246
:10229000D105B9F704C02F3F94F32A3284F7DF91B8
:1022A000CF911F91EF90DF90CF900C9495222A321E
:1022B00034F7142FC22F220FDD0B812F90E0C817A7
:1022C000D9076CF36E2DA6010E94D1221F5FF5CFB6
:1022D000CF93DF93D82F6091920580919105680F7D
:1022E00080E00E942D10C0E0CD17B1F080919205E2
:1022F000853038F02C2F4C2F65E070E08AE00E948A
:102300002E1181E00E94C4066BEE70E080E090E048
:102310000E942C28CF5FE8CFDF91CF910895CF9313
:10232000DF93C6ECD0E0FE01649161110FC067E954
:1023300073E088EA95E00E942320C0919104D09137
:102340009204C130D10509F060C008C088EA95E068
:102350000E9495192196892B31F7E9CF80918C0441
:1023600090918D049C01205131092230310530F4C7
:1023700010928D0410928C0481E033C0009791F488
:102380000E9499286093F5067093F6068093F706ED
:102390009093F80610928E04D0938D04C0938C0411
:1023A00082E01FC08330910521F18130910541F415
:1023B00082E090E090938D0480938C0483E011C0C0
:1023C0008230910511F00D97A1F481E190E0909396
:1023D0008D0480938C0460E084ED93E00E94380EBD
:1023E00084E00E94681164EF71E080E090E00E9458
:1023F0002C2880918C0490918D04429731F483E1D4
:1024000090E090938D0480938C04DF91CF91089598
:10241000CF93C82F61E070E080E090E00E94BB1F86
:102420002C2F30E0205F3F4FC901860F971FCF91BF
:10243000089580918804909189040297029720F072
:102440006FEF8FEF0E942D10809188049091890486
:10245000089731F48FEF9FEF90938904809388045D
:10246000E0918804F09189043196F0938904E09317
:102470008804EA30F10508F0C7C0EB5BFF4F0C940D
:10248000B83284E090E0909389048093880461E0FE
:102490008CED93E00E94380E80918F0524E6829F98
:1024A000C00111246EE170E00E94A432CB010E94B1
:1024B000022384E01AC06FEF8FEF0E942D1061E0BD
:1024C00088EE93E00E94380E85E00E94C40668E51D
:1024D00072E080E090E00E942C289091900586E1C7
:1024E000989F802D11240E9408120E94C40664EF58
:1024F00071E080E090E00C942C2861E084EF93E0A0
:102500000E94380E87E00E94C40664EF71E080E00C
:1025100090E00E942C28E091900587E0E89FF00170
:102520001124EA56FA4F16C061E080E094E00E9460
:10253000380E86E00E94C40664EF71E080E090E00F
:102540000E942C28E091900527E0E29FF0011124E1
:10255000ED56FA4F908182812181209383049093DC
:102560008204809384040E94380F40919205209148
:102570009105240F609182047091830480918404FA
:102580000C942E110E947E0661E08CE094E00E9483
:10259000380E8CE0AACF61E088E194E00E94380E0A
:1025A0004091920520919105240F2150E0919005D2
:1025B00087E0E89FF0011124E657FA4F61857285A4
:1025C00083850E942E118DE090CF61E084E294E03B
:1025D0000E94380E20919205215040E060E070E0AA
:1025E0008AE00E942E118EE080CF60E080E394E0CC
:1025F0000E94380E0C947E068FE00E94C40661E0B3
:102600008CE394E00C94380E0895CF93DF9380917F
:102610009104909192048130910509F087C00E9445
:1026200099286093F5067093F6068093F7069093C9
:10263000F80610928E048BE00E948127892B69F5A1
:1026400080919005823019F41092900503C08F5F3D
:102650008093900580919005C6E18C9FC02D112438
:10266000D0E061E070E080E090E00E94BB1FCE010E
:102670004196860F0E94C40660ED77E080E090E00E
:102680000E942C2880918C0490918D0490938B044F
:1026900080938A0485E190E027C080918C0490911A
:1026A0008D048230910529F580919005C6E18C9FBB
:1026B000C02D1124D0E061E070E080E090E00E9445
:1026C000BB1FCE018496860F0E94BB0661E089E0A5
:1026D0000E94AA2741E061E08091890690918A06D4
:1026E0000E94A5288AE090E090938D0480938C044A
:1026F00050C0019709F04DC08BE090E090938D049D
:1027000080938C0480919005C6E18C9FC02D11248C
:10271000D0E061E070E080E090E00E94BB1FCE015D
:102720008196860FDF91CF910C94BB068230910584
:10273000A1F420918804309189042730310549F4AF
:1027400010929204109291049093900480938F04BD
:1027500020C0DF91CF910C941912009759F482E0B8
:1027600090E09093920480939104109290041092C0
:102770008F040FC0049769F480918504823519F0A5
:102780008F5F8093850480918504DF91CF910C94B5
:10279000C406DF91CF91089585ED8093BC008091B0
:1027A000BC0084FDFCCF109266050895409117058A
:1027B000262F30E0240F311D21323105DCF4209129
:1027C00066052430C9F4FC0180E090E0861758F4D7
:1027D000309117052191DC01A950BB4FA30FB11D0A
:1027E0002C930196F3CF80911705680F609317051E
:1027F00080E0089581E0089582E0089508950895A5
:102800000895E0913F0580913E05E81730F4F0E02F
:10281000E952FB4F808190E008958FEF9FEF08957C
:1028200090913F0580913E05981750F4E92FF0E014
:10283000E952FB4F208130E09F5F90933F0502C03B
:102840002FEF3FEFC901089580913E0590E0209160
:102850003F05821B91090895CF92DF92EF92FF927C
:102860000F931F93CF93DF937C01CB018A012091BB
:102870006705222389F0EB016B01C40ED51ECC1530
:10288000DD0569F06991D701ED91FC910190F0812E
:10289000E02DC7010995F3CF642F0E94D613C8011C
:1028A000DF91CF911F910F91FF90EF90DF90CF902C
:1028B0000895CF93DF931F92CDB7DEB76983209140
:1028C00067052223D1F020918905203240F021E0D4
:1028D00030E0FC013383228380E090E015C08091DA
:1028E0006805E82FF0E0E759FA4F998190838F5FF0
:1028F000809368058093890505C061E0CE0101964B
:102900000E94D61381E090E00F90DF91CF9108955F
:1029100020919504309196042817390781F49091FD
:10292000940480919304981751F0E0919404F0E09E
:10293000E956FB4F8081082E000C990B08958FEF0C
:102940009FEF089520919504309196042817390738
:1029500039F48FB7F89410929304109294048FBFB7
:102960000895FC01848D958D009729F421E030E0D5
:10297000338322830895A189B2893089532F5095DA
:102980007FB7F8942C9125232C93FC013197F1F714
:1029900028E04C9160FF02C0432B01C045234C93BB
:1029A000FC013197F1F76695215099F72C91232B73
:1029B0002C937FBF0197F1F781E090E0089520917B
:1029C0009504309196042817390771F48091930487
:1029D0002091940490E0805C9F4F821B910960E4F9
:1029E00070E00E94A432089580E090E00895209164
:1029F00095043091960428173907B9F490919404FE
:102A000080919304981789F0E0919404F0E0E956DE
:102A1000FB4F80812091940430E02F5F3F4F2F7354
:102A200033272093940490E008958FEF9FEF08954B
:102A3000FC0187E193E091838083809195049091DC
:102A40009604E817F90759F4A389B4899C918589FC
:102A5000809589238C931092960410929504089582
:102A6000089580E090E00895CF93DF93EC010E94F9
:102A70001815CE01DF91CF910C9456331F920F920F
:102A80000FB60F9211242F933F934F935F936F9341
:102A90007F938F939F93AF93BF93EF93FF93809117
:102AA000B900887F803609F49CC068F5883209F443
:102AB0005BC090F4803109F454C038F4882309F4E1
:102AC000F6C0883009F44DC0F6C0883109F44CC016
:102AD000803209F45DC0EFC0803409F468C048F466
:102AE000803309F455C0883309F0E5C0809364054C
:102AF000D8C0803509F44FC0883509F45DC08834EA
:102B000009F0D9C0D6C0883909F4C7C0A8F48837FD
:102B100009F467C038F4883609F463C0803709F4D3
:102B200060C0C9C0883809F4B8C0803909F45FC0F2
:102B3000803809F0C0C05BC0803B09F486C038F41F
:102B4000803A09F466C0883A09F47FC0B4C0803C7A
:102B500009F4A7C0883C09F4A4C0883B09F48AC0E2
:102B6000AAC08091410510C09091630580916205D3
:102B7000981770F5E091630581E08E0F80936305EF
:102B8000F0E0EE5BFA4F80818093BB0085EC86C05D
:102B9000809364058EC0E091630581E08E0F809381
:102BA00063058091BB00F0E0EE5BFA4F808390916B
:102BB0006305809162056EC0E091630581E08E0F30
:102BC000809363058091BB00F0E0EE5BFA4F808359
:102BD0008091650581116DC081E08093400584EA94
:102BE00061C083E08093660510923905CFCF809154
:102BF0003905803208F051C0E091390581E08E0F2F
:102C0000809339058091BB00F0E0E75EFA4F808346
:102C1000BDCF85EC8093BC0010926605809139058C
:102C2000803230F4E0913905F0E0E75EFA4F10822F
:102C30006091390570E0E0913A05F0913B0589E13A
:102C400095E009951092390536C084E080936605B9
:102C50001092180510921705E0913C05F0913D0582
:102C6000099580911705811105C081E080931705B2
:102C70001092F704E091180581E08E0F80931805FB
:102C8000F0E0E950FB4F80818093BB0090911805E4
:102C900080911705981708F479CF85E88093BC00D8
:102CA0000AC085EC8093BC001092660504C01092A7
:102CB00064050E94CC13FF91EF91BF91AF919F915A
:102CC0008F917F916F915F914F913F912F910F90D5
:102CD0000FBE0F901F9018951F920F920FB60F9274
:102CE00011242F933F934F935F936F937F938F9311
:102CF0009F93AF93BF93EF93FF93E0919504F0916F
:102D00009604309709F451C0968DA685B7858585C0
:102D100091FF04C09C91892329F447C09C91892389
:102D200009F043C0A389B4899C9185898095892342
:102D30008C93868997890197F1F7608D718DA685AF
:102D4000B785558538E020E0CB010197F1F7822F58
:102D500090E095958795282F4C91452309F02068A0
:102D6000315091F7868D81FD20958091930490E0FC
:102D700001968F73992730919404381749F0A091E8
:102D80009304B0E0A956BB4F2C938093930403C0E7
:102D9000868D8160868F828D938D0197F1F7A3894F
:102DA000B4899C918589892B8C93FF91EF91BF9178
:102DB000AF919F918F917F916F915F914F913F91D3
:102DC0002F910F900FBE0F901F9018958F929F928A
:102DD000AF92BF92CF92DF92EF92FF920F931F9329
:102DE000CF93DF93C82FE091900587E0E89FF00133
:102DF0001124E657FA4FD785D13009F476C08C2ECE
:102E0000912CA12CB12CD23009F4EFC00E942924BE
:102E10001092600610925F06109262061092610690
:102E200081E080936706D3E0D093680680915906CD
:102E300090915A0690935C0680935B0680915706AA
:102E40009091580690935E0680935D0668E474E066
:102E500083E596E00E942320109268068091570631
:102E60009091580690935C0680935B06809159067A
:102E700090915A0690935E0680935D06EE24E3944B
:102E8000F12C00E210E022E730E040E050E06EE09C
:102E900070E083E596E00E94E11D80E190E0909370
:102EA000600680935F0686E090E0909362068093D0
:102EB000610681E090E090936606809365069093AA
:102EC000640680936306D09367066DE474E083E53F
:102ED00096E00E942320CA3008F0ADC060E574E09F
:102EE00083E596E00E942320A6C00E94292481E069
:102EF00090E09093660680936506909364068093B5
:102F0000630685E297E090936C0680936B06D093FE
:102F100067061092600610925F068AE090E0909338
:102F200062068093610662E574E083E596E00E94A4
:102F3000812083E0809368068091590690915A061B
:102F400090935C0680935B0680915706909158069B
:102F500090935E0680935D066C2F83E596E00E9459
:102F60007C24809157069091580690935C0680933C
:102F70005B068091590690915A0690935E06809365
:102F80005D0682E080936806D0E0229692E0C92E2A
:102F9000D12CA12CB12CCC16DD06A1F0EE24E394AB
:102FA000F12C860122E030E040E050E0B50183E5FD
:102FB00096E00E947F1D84E0A80EB11C8FEFC81A16
:102FC000D80AE9CF1092680680915706909158066A
:102FD00090935C0680935B068091590690915A0607
:102FE00090935E0680935D062DC0E12CF12C00E1EC
:102FF00010E02EE130E04FE050E06AE570E083E55C
:1030000096E00E947F1D8DE590E09093600680938E
:103010005F0680E190E09093620680936106D09312
:10302000670681E090E09093660680936506909332
:103030006406809363062AE0B501A40183E596E067
:103040000E943820DF91CF911F910F91FF90EF9058
:10305000DF90CF90BF90AF909F908F900C94A12362
:10306000EF92FF920F931F930E94292410926C06F7
:1030700010926B061092600610925F061092620624
:1030800010926106E091900587E0E89FF00111241D
:10309000E657FA4F87858230B1F50E94292481E0F6
:1030A0008093670681E090E09093660680936506C2
:1030B000909364068093630662E574E083E596E08E
:1030C0000E9481208DE290E09093600680935F06DD
:1030D00087E190E0909362068093610668E474E073
:1030E00083E596E00E948120EE24E394F12C02E136
:1030F00010E020E230E04EE050E069E570E083E56A
:1031000096E00E94E11D1F910F91FF90EF900C94AB
:10311000A123DF92EF92FF920F931F93CF93DF9340
:103120000E94292410926C0610926B0681E090E0B8
:103130009093660680936506909364068093630679
:10314000809367061092600610925F0610926206E6
:1031500010926106E12CF12C00E010E0C0E0D0E01C
:10316000CE0187709927892B11F0DD0C0BC0FE0171
:1031700083E0F595E7958A95E1F7EE0DFF1DEB5598
:10318000F94FD490D7FE08C021E030E0A801BE017D
:1031900083E596E00E94C31C2196C032D10501F759
:1031A0000F5F1F4F84E0E80EF11C00321105B1F6ED
:1031B000C3E2D0E0D0936006C0935F06109262062F
:1031C0001092610667E674E083E596E00E94812034
:1031D000D0936006C0935F068AE090E09093620609
:1031E0008093610664E774E083E596E00E948120A5
:1031F000DF91CF911F910F91FF90EF90DF900C9492
:10320000A1230895CF92DF92EF92FF920F931F9325
:10321000CF93DF936C017A018B01C0E0D0E0CE1533
:10322000DF0581F0D8016D918D01D601ED91FC9102
:103230000190F081E02DC6010995892B11F02196AE
:10324000EECF7E01C701DF91CF911F910F91FF90CB
:10325000EF90DF90CF900895FC01538D448D252F82
:1032600030E0842F90E0821B930B541710F0CF9620
:10327000089501970895FC01918D828D981761F052
:10328000828DDF01A80FB11D5D968C91928D9F5F9D
:103290009F73928F90E008958FEF9FEF0895FC0148
:1032A000918D828D981731F0828DE80FF11D858DFB
:1032B00090E008958FEF9FEF0895FC01918D228D8E
:1032C000892F90E0805C9F4F821B91098F73992713
:1032D000089588EA95E00E945D1921E0892B09F4A0
:1032E00020E0822F0895FC01848DDF01A80FB11D1D
:1032F000A35ABF4F2C91848D90E001968F7399272C
:10330000848FA689B7892C93A089B1898C91837009
:1033100080648C93938D848D981306C00288F38902
:10332000E02D80818F7D80830895EF92FF920F932F
:103330001F93CF93DF93EC0181E0888F9B8D8C8D61
:10334000981305C0E889F989808185FD26C0F62E8D
:103350000B8D10E00F5F1F4F0F731127E02E8C8D28
:10336000E8120CC00FB607FCFACFE889F989808112
:1033700085FFF5CFCE010E947319F1CF8B8DFE0131
:10338000E80FF11DE35AFF4FF0829FB7F8940B8FBF
:10339000EA89FB89808180620AC09FB7F894EE8930
:1033A000FF896083E889F9898081837080648083E4
:1033B0009FBF81E090E0DF91CF911F910F91FF902F
:1033C000EF900895CF93DF93EC01888D8823C9F0A7
:1033D000EA89FB89808185FD05C0A889B9898C911E
:1033E00086FD0FC00FB607FCF5CF808185FFF2CFB9
:1033F000A889B9898C9185FFEDCFCE010E94731900
:10340000E7CFDF91CF91089580E090E0892B29F0FC
:103410000E94691981110C94000008950F931F9365
:10342000CF93DF93DC0155968C915597823071F0E4
:10343000833009F1813009F08CC01496ED91FC9134
:103440001597E41BF50BE21BF30B20C01496ED91CE
:10345000FC911597CF01861B970BBC016150710938
:103460001696ED91FC911797CF01841B950BAC013B
:10347000421B530B6EC01696ED91FC911797CF012E
:10348000861B970BBC0161507109FA0177FD1BC1C6
:1034900016968D919C911797681779070CF013C1B8
:1034A000F7FF04C02E0F3F1FE0E0F0E014968D916F
:1034B0009C911597AF01420F531F841795071CF479
:1034C0009C012E1B3F0B121613060CF0FCC0CB0107
:1034D00077FD079643E0959587954A95E1F7969590
:1034E000982F882797958795E80FF91FEB5FFE4F78
:1034F0006770772781E090E001C0880F6A95EAF74E
:10350000482F0130110541F088F00230110509F013
:10351000DAC02E0F3F1F15C02E0F3F1FE217F30713
:1035200009F4D1C08081842B8193F8CF80952E0F30
:103530003F1FE217F30709F4C6C0908198239193C7
:10354000F8CFE217F30709F4BEC080818427819386
:10355000F8CF77FDB8C014968D919C911597681798
:1035600079070CF0B0C057FF04C0240F351F40E0AE
:1035700050E016968D919C911797FA01E20FF31F78
:103580008E179F071CF49C01241B350B1216130683
:103590000CF099C0A22F842F86958695869590E889
:1035A000899F600D711D1124FB01EB5FFE4F477079
:1035B000A9F198E0941B492F50E0EA01CF5CDC4F61
:1035C0008881291790F4421B51092FEF30E002C087
:1035D000359527954A95E2F782230130110541F090
:1035E00068F00230110589F06EC00130110519F440
:1035F0002081822B0CC00130110520F480952081A0
:10360000822305C00230110531F420818227808396
:10361000A91708F458C0A91BE058FF4FA83048F17B
:103620000230110559F4EF018A2F98819095988303
:10363000C058DF4F88508830C0F730C081E001307B
:10364000110509F080E08195EF019A2F8883C05819
:10365000DF4F98509830D0F788EF8A0F869586957F
:10366000869590E8899FE00DF11D1124E058FF4FE9
:10367000A770AA2341F1B0E0A75DBC4F8C91013047
:10368000110529F038F002301105E9F419C09081D4
:10369000892B18C080959081892314C088EF8A0FE8
:1036A00086958695869590E8899FE00DF11D1124F9
:1036B000E058FF4FA77039F0B0E0A75DBC4F8C9188
:1036C000908189278083DF91CF911F910F91089579
:1036D0000F931F93CF93DF93DC01FB0155968C91E1
:1036E0005597823089F0833021F1813009F0E7C0AD
:1036F00014968D919C911597BC01641B750BAB01C1
:1037000041505109BF011DC014966D917C911597D0
:10371000CB018E1B9F0BFC0116968D919C911797E8
:10372000BC01641B750BAB0141505109E21BF30B4B
:10373000C6C016966D917C9117976E1B7F0B621B0E
:10374000730B57FD1BC114968D919C9115974817CB
:1037500059070CF013C177FF04C0260F371F60E034
:1037600070E016968D919C911797FB01E20FF31F65
:103770008E179F071CF49C01261B370B121613068D
:103780000CF0FCC0A22F862F86958695869590E832
:10379000899F400D511D1124FA01EB5FFE4F6770A8
:1037A000A9F198E0961B492F50E0EA01CF5CDC4F6D
:1037B0008881291790F4421B51092FEF30E002C095
:1037C000359527954A95E2F782230130110541F09E
:1037D00068F00230110589F0D1C00130110519F4EB
:1037E0002081822B0CC00130110520F480952081AE
:1037F000822305C00230110531F4208182278083A5
:10380000A91708F4BBC0A91BE058FF4FA83048F126
:103810000230110559F4EF018A2F98819095988311
:10382000C058DF4F88508830C0F733C081E0013086
:10383000110509F080E08195EF019A2F8883C05827
:10384000DF4F98509830D0F788EF8A0F869586958D
:10385000869560E8869FE00DF11D1124E058FF4F2A
:10386000A770AA2309F48AC0B0E0A75DBC4F8C9171
:103870000130110531F040F00230110509F07EC031
:103880001BC09081892B03C0809590818923808300
:1038900075C088EF8A0F86958695869570E8879F14
:1038A000E00DF11D1124E058FF4FA77009F466C028
:1038B000B0E0A75DBC4F8C9190818927E8CF57FD80
:1038C0005DC016968D919C911797481759070CF07B
:1038D00055C0F7FF04C02E0F3F1FE0E0F0E0149644
:1038E0008D919C911597BF01620F731F86179707E3
:1038F0001CF49C012E1B3F0B121613060CF03EC04D
:10390000CA0157FD079663E0959587956A95E1F79B
:103910009695982F882797958795E80FF91FEB5F65
:10392000FE4F4770552781E090E001C0880F4A950F
:10393000EAF7482F0130110539F078F0023011050F
:10394000E9F42E0F3F1F13C02E0F3F1FE217F3079E
:10395000A9F08081842B8193F9CF80952E0F3F1F92
:10396000E217F30759F0908198239193F9CFE2176A
:10397000F30721F0808184278193F9CFDF91CF91E4
:103980001F910F910895FC0177FD9AC08085918564
:10399000681779070CF094C057FD92C08285938513
:1039A000481759070CF08CC08589823009F07CC01B
:1039B00084819581DC01A61BB70BBD0161507109A3
:1039C00086819781FC01E41BF50BAF014150510941
:1039D0000AC0813041F484819581841B950BAB0131
:1039E000BC01615071092130310529F008F1223004
:1039F0003105E1F10895FA0157FD3796A3E0F595F9
:103A0000E795AA95E1F7F695FE2FEE27F795E7954E
:103A10006E0F7F1FFB01EB5FFE4F4770552781E064
:103A200090E001C0880F4A95EAF79081892B3AC04F
:103A3000FA0157FD379623E0F595E7952A95E1F7CA
:103A4000F695FE2FEE27F795E7956E0F7F1FFB018A
:103A5000EB5FFE4F4770552781E090E001C0880F73
:103A60004A95EAF78095908189231CC0FA0157FD99
:103A7000379683E0F595E7958A95E1F7F695FE2F61
:103A8000EE27F795E7956E0F7F1FFB01EB5FFE4F6B
:103A90004770552781E090E001C0880F4A95EAF70A
:103AA0009081892780830895833009F092CF8681A1
:103AB0009781861B970BBA01AC014150510993CFF6
:103AC00008950895EF92FF920F931F93DC011A96C9
:103AD0000D911C911B9718962D913C911997ED9182
:103AE000FC910288F389E02D7B0140E050E060E02A
:103AF00070E009951F910F91FF90EF9008956F92DC
:103B00007F928F929F92AF92BF92CF92DF92EF926D
:103B1000FF920F931F93CF93DF936C015A014801DB
:103B2000EB013B01620E731EC615D70574F4D60176
:103B3000ED91FC910484F585E02D87019401A501A8
:103B4000BE01C60109952196EFCFDF91CF911F915C
:103B50000F91FF90EF90DF90CF90BF90AF909F902C
:103B60008F907F906F900895EF92FF920F931F9325
:103B7000260F371F21503109DC01ED91FC910284A1
:103B8000F385E02D78018A0109951F910F91FF902F
:103B9000EF900895EF92FF920F931F93240F351F1C
:103BA00021503109DC01ED91FC910284F385E02D77
:103BB000780189019B0109951F910F91FF90EF906A
:103BC00008956F927F928F929F92AF92BF92CF9201
:103BD000DF92EF92FF920F931F93CF93DF93EC014D
:103BE0004B015A0169013801E881F9810684F785A2
:103BF000E02D87010995A501460D571D415051093A
:103C0000E881F9810684F785E02D9601B401CE01A3
:103C10000995E881F9810484F585E02D9301A501DA
:103C2000B401CE010995C80CD91CB60161507109C7
:103C3000E881F9810484F585E02D9301A501CE0189
:103C40000995DF91CF911F910F91FF90EF90DF9039
:103C5000CF90BF90AF909F908F907F906F9008957E
:103C60002F923F924F925F926F927F928F929F928C
:103C7000AF92BF92CF92DF92EF92FF920F931F937A
:103C8000CF93DF9300D000D000D0CDB7DEB72C01AA
:103C90007E836D836A015901C801FC82EB82480171
:103CA000841A950A97FE03C0919481949108350176
:103CB0002D813E81621A730A77FE03C0719461946C
:103CC0007108681479045CF43A2D2B2D5C01832F64
:103CD000922F3D812E81DE82CD82C32ED22EAD81E8
:103CE000BE81AA16BB065CF43C2D2D2D6C01832FE2
:103CF000922F3D812E81BE82AD82A32EB22E8501F0
:103D00002D813E81021B130B1C012C183D0837FE30
:103D100003C0319421943108780117FF03C03FEFAD
:103D2000E31AF30AF594E794C816D9062CF08FEF3E
:103D30009FEF9A83898304C0A1E0B0E0BA83A9838E
:103D40002D813E81A216B30624F1D201ED91FC91A2
:103D50000084F185E02D2B813C816814790424F4E2
:103D60004D815E81B60103C0A6016D817E81C201D5
:103D70000995E218F308F7FE06C029813A81C20EC0
:103D8000D31EE00EF11E8D819E8101969E838D8350
:103D9000D7CF26960FB6F894DEBF0FBECDBFDF910A
:103DA000CF911F910F91FF90EF90DF90CF90BF9038
:103DB000AF909F908F907F906F905F904F903F90CB
:103DC0002F9008950E94DF33AF92BF92CF92EF926F
:103DD000FF920F931F93CF93DF93EC01262F888DD3
:103DE000998D009709F042C06A3069F42C898E855C
:103DF0009F8538E0239F800D911D11249F878E871A
:103E00001D861C86ACC06D3009F4A9C08E8988233C
:103E1000C1F03C898C859D8546E0349F800D911DC5
:103E2000112448855985841795075CF01D861C86EA
:103E30008E859F85E8E03E9F800D911D11249F8710
:103E40008E87EA88FB88088919894E855F856C858D
:103E50007D85CC88CE010E94DF252C898C859D85AF
:103E6000F6E02F9F800D911D112441C06A3079F436
:103E70001D861C862C89FC013696E4918E859F85D3
:103E80002E9F800D911D11249F878E8768C06D30F5
:103E900009F465C0AC014C5F5F4FFA0134916317C0
:103EA00008F45DC03196E491E61708F458C0FA01B1
:103EB0004491362F341BFC013296A590B490F7E064
:103EC0003F9FA00CB11C1124F5013296349131961C
:103ED000E491332311F0E1110DC0F5013496E49122
:103EE0002C898C859D85E29F800D911D11249D87D5
:103EF0008C8735C0F501359644915E89552311F1C3
:103F00006C89E32FF0E0E40FF11D47FDFA956E9FF9
:103F1000D0016F9FB00D11244C855D854A0F5B1F4A
:103F2000E885F9854E175F076CF01D861C86FC013D
:103F30003696E4918E859F856E9F800D911D11248C
:103F40009F878E87EA88FB88088919894E855F8557
:103F50006C857D85CC88CE010E94DF25BECF81E0B7
:103F600090E0DF91CF911F910F91FF90EF90CF9054
:103F7000BF90AF900895CF92DF92EF92FF926115BC
:103F800071058105910549F06B017C010E94B031FA
:103F9000A70196010E942D3203C060E070E0CB01C2
:103FA000FF90EF90DF90CF9008951F920F920FB681
:103FB0000F9211242F933F934F935F936F937F93AF
:103FC0008F939F93AF93BF93EF93FF93E091020181
:103FD000F09103010995FF91EF91BF91AF919F91EE
:103FE0008F917F916F915F914F913F912F910F90A2
:103FF0000FBE0F901F9018951F920F920FB60F9241
:1040000011242F933F934F935F936F937F938F93DD
:104010009F93AF93BF93EF93FF93E0910001F091D3
:1040200001010995FF91EF91BF91AF919F918F9100
:104030007F916F915F914F913F912F910F900FBEA4
:104040000F901F9018956115710579F0FB01019093
:104050000020E9F73197AF01461B570BDC01ED91CA
:10406000FC910280F381E02D099480E090E00895B6
:104070008F929F92AF92BF92EF92FF920F931F93F6
:10408000CF93DF93CDB7DEB7A1970FB6F894DEBF1D
:104090000FBECDBF7C01FA01CB0119A2223008F47A
:1040A0002AE08E010F5D1F4F822E912CA12CB12C86
:1040B000BF01A50194010E945F32F901CA010150BC
:1040C00011096A3014F4605D01C0695CD8016C9319
:1040D000232B242B252B61F7B801C7010E94232035
:1040E000A1960FB6F894DEBF0FBECDBFDF91CF9182
:1040F0001F910F91FF90EF90BF90AF909F908F9086
:1041000008950F931F93CF93DF93EC010E94232018
:104110008C0167E973E0CE010E942320800F911F7C
:10412000DF91CF911F910F9108951F920F920FB6BB
:104130000F9211242F933F934F935F936F937F932D
:104140008F939F93AF93BF93EF93FF9388EA95E08C
:104150000E947319FF91EF91BF91AF919F918F9141
:104160007F916F915F914F913F912F910F900FBE73
:104170000F901F9018951F920F920FB60F92112457
:104180002F938F939F93EF93FF93E091B805F09156
:10419000B9058081E091BE05F091BF0582FD12C096
:1041A00090818091C1058F5F8F732091C205821726
:1041B00051F0E091C105F0E0E855FA4F958F8093FA
:1041C000C10501C08081FF91EF919F918F912F9147
:1041D0000F900FBE0F901F901895CF92DF92EF9225
:1041E000FF920F931F93CF93DF93EC0188810E947E
:1041F00081278C010E949928298D3A8D211531053E
:1042000079F42A853B850217130709F0ACC021E039
:1042100030E03A8F298F6B8F7C8F8D8F9E8FA3C05C
:104220002130310509F052C028853985021713075E
:10423000D9F40B8D1C8D2D8D3E8DAB01BC01401B27
:10424000510B620B730B8E819F81092E000CAA0B00
:10425000BB0B481759076A077B0718F41A8E198E8B
:1042600082C082E090E02FC02A853B8502171307A9
:1042700009F079C00B8D1C8D2D8D3E8DAB01BC01DD
:10428000401B510B620B730B8C819D81092E000C1E
:10429000AA0BBB0B84179507A607B70708F063C0E6
:1042A00081E08C87E989FA89309709F00995EB89D3
:1042B000FC89309709F00995EF89F88D309709F05E
:1042C000099586E090E09A8F898F4DC022303105A4
:1042D00001F5CB8CDC8CED8CFE8CDC01CB018C19D8
:1042E0009D09AE09BF09CA80DB800D2C000CEE08C9
:1042F000FF08C816D906EA06FB0618F4ED85FE8508
:104300001EC08A859B850817190769F583E090E030
:10431000DACF2330310541F48885998508171907CC
:1043200011F5EF85F8890BC026303105E1F4888559
:1043300099850817190741F41C86ED89FE89309785
:1043400009F48CCF09958ACF81E08C87EF89F88DAD
:10435000309749F0DF91CF911F910F91FF90EF902F
:10436000DF90CF900994DF91CF911F910F91FF9033
:10437000EF90DF90CF90089530918905313208F0A9
:104380004BC0809166058111FCCF9091F90622E027
:104390002093660521E0209365052FEF20936405A7
:1043A0001092630530936205E9E6F5E0A2E4B5E01A
:1043B00020E0321721F041914D932F5FFACF1092F8
:1043C000410520914105990F922B909341059091C1
:1043D0004005913061F41092400590914105909311
:1043E000BB009091BC0093FDF8CF95EC01C095EE19
:1043F0009093BC00909166059230E1F39091640532
:104400009F3F79F080916405803241F0809164058E
:10441000803331F084E005C081E003C082E001C058
:1044200083E010926805109289051092670508953F
:1044300090917406992339F08EBD00000DB407FEEB
:10444000FDCF8EB5089528E030E040E8E091770692
:10445000F0917806508190917E06909595239083F7
:10446000E0917506F091760690917D06582F5423C1
:1044700019F05081952B03C050819095952390831E
:10448000E0917706F0917806508190917E06952B09
:104490009083469521503109C9F608959EE790937F
:1044A0008F069FEF9093900696E0909391068093ED
:1044B00092068091A506809393064115510521F43B
:1044C0006F3F710509F018F44093940602C0709391
:1044D00094066093950610929606109297068FEEBA
:1044E00080939806E0E9F6E026E936E080E090E087
:1044F0004191840F911D2E173F07D1F7919581951A
:1045000091099093960680939706089580918D0661
:1045100090918E06DC01ED91FC910280F381E02DFB
:104520004AE050E06FE876E00994E091F206F091FD
:10453000F30690818091F406892B8083A091F00688
:10454000B091F1064091F4068091E9069091EA0657
:104550009C01220F331F820F931F6091EB06509135
:10456000EC062C91342F30953223242B4FB7F8943E
:10457000E62FF52F8E0F9F1FE817F90781F0519155
:1045800068E02C9300C057FF3C93550F00C000C05B
:1045900000C008F43C9300C06A9599F7EDCF4FBF77
:1045A00008952091E9063091EA068217930740F5B5
:1045B000FC01EE0FFF1F8E0F9F1F2091EE06A091B2
:1045C000EB06B091EC06A80FB91FA20FB11D4C93DA
:1045D0002091ED06A091EB06B091EC06A80FB91F53
:1045E000A20FB11D5C932091EF06E091EB06F091D4
:1045F000EC06E80FF91FE20FF11D608380E00895DB
:1046000081E00895EF92FF920F931F93CF93DF9372
:104610008C011816190634F4843691052CF004E642
:1046200010E002C000E010E0C0E0D0E084E6E82E38
:10463000F12C20919205422F50E0C417D50780F548
:10464000409FC001419F900D509F900D1124B701D4
:104650000E94A432C617D707D8F43EE1239FC001B9
:104660001124B7010E94A432C617D70710F45AE0EC
:1046700010C03CE3239FC0011124B7010E94A43263
:10468000C617D70710F45AE001C050E04AE002C054
:1046900050E040E060E0CE010E94D1222196C9CFD7
:1046A000DF91CF911F910F91FF90EF900C94952285
:1046B000CF93C82F80916F068F3F59F1E091790613
:1046C000F0917A06908180917F06892B8083E0911A
:1046D0007B06F0917C0690818091800680958923ED
:1046E0008083E0917906F0917A06908180917F062F
:1046F0008095892380838C2F0E941822E09179066F
:10470000F0917A06908180917F06892B8083CF91EA
:10471000089580916D0691E0909367058093F90666
:10472000109268051092890560E087E496E00E9487
:1047300059146C2F87E496E00E945914CF910C9481
:10474000BC21BF92CF92DF92EF92FF920F931F9303
:10475000CF93DF9381E20E94582380E00E94582388
:104760008FE70E94582382E20E94582380E00E9433
:10477000582383E00E94582380916F068F3F81F178
:10478000E0917906F0917A06908180917F06892BDD
:104790008083E0917B06F0917C0690818091800679
:1047A000892B8083E0917906F0917A06908180913F
:1047B0007F06809589238083C5E0D1E005E013E082
:1047C00089910E9418220C171D07D1F7E0917906F4
:1047D000F0917A06908180917F06892B80832FC08B
:1047E0000091B8008CE08093B800C5E0D1E085E08E
:1047F000C82E83E0D82EBB24B39480916D06B0926E
:1048000067058093F906109268051092890560E4A7
:1048100087E496E00E9459147E0110E1F70161914E
:104820007F0187E496E00E9459141150B9F70E9465
:10483000BC216096CC16DD0601F70093B800DF912D
:10484000CF911F910F91FF90EF90DF90CF90BF908D
:10485000089580E092E0E5E0F1E0DF019C011D9227
:1048600021503040E1F7089510923F0510923E0527
:1048700010926805109289051092660581E0809378
:1048800065051092400561E082E10E94AA2761E07F
:1048900083E10E94AA27E9EBF0E080818E7F80838C
:1048A00080818D7F808388E48093B80085E4809345
:1048B000BC008EEF93E190933D0580933C058FEF14
:1048C00093E190933B0580933A050895CF93DF934E
:1048D000AC0160E070E02AE088EA95E00E943820B0
:1048E000EC0167E973E088EA95E00E9423208C0FD1
:1048F0009D1FDF91CF9108950F931F93CF93DF9367
:10490000EC01462F50E060E070E02AE00E94382081
:104910008C0167E973E0CE010E942320800F911F74
:10492000DF91CF911F910F910895833081F028F48A
:10493000813099F08230A1F008958730A9F0883055
:10494000B9F08430D1F4809180008F7D03C08091D4
:1049500080008F7780938000089584B58F7702C0A0
:1049600084B58F7D84BD08958091B0008F7703C09A
:104970008091B0008F7D8093B00008953FB7F89488
:104980008091020790910307A0910407B091050759
:1049900026B5A89B05C02F3F19F00196A11DB11D9A
:1049A0003FBFBA2FA92F982F8827820F911DA11DD5
:1049B000B11DBC01CD0142E0660F771F881F991F12
:1049C0004A95D1F708958F929F92AF92BF92CF925E
:1049D000DF92EF92FF920F931F93CF93DF93C6E086
:1049E000D7E00CED15E06091910570E0CE018650A6
:1049F0009740861797070CF049C0C880D12CE12C4E
:104A0000F12CC8010E94A4326E5F7F4F072E000C6C
:104A1000880B990B0E94BB1FC61AD70AE80AF90A2D
:104A2000F7FC2FC0C880D12CE12CF12C60919105AE
:104A300070E0C8010E94A4326E5F7F4F072E000C09
:104A4000880B990B0E94BB1FC61AD70AE80AF90AFD
:104A50004FEFC416D104E104F10409F0A4F4F88086
:104A60006091910570E0C8010E94A4326E5F7F4F93
:104A7000072E000C880B990B0E94BB1F8F2D861BE5
:104A800003C080E001C08FEF8993ADCF9B01F90196
:104A9000EC5FF84FC3E0D0E02150310922303105FE
:104AA00064F08081429190E0840F911D840F911DEC
:104AB000BE010E94A4326283EFCF0E94B0312FEF7B
:104AC00030E040E050E00E942D32663971058105EA
:104AD0009105A4F50E94B03127E030E040E050E0BD
:104AE0000E942D326B017C010E94B031E601CA5F49
:104AF000D84FC880D12CE12CF12C0E94B0312FE589
:104B0000822E912CA12CB12CA50194010E942D3252
:104B1000C60ED71EE81EF91E50E6C516D104E104E4
:104B2000F10454F418810E94B0311056A50194018B
:104B30000E942D32610F01C06FEF6883C091920512
:104B4000D0E010EC00E08091920590E0209191057A
:104B5000AC01420F511DC417D50724F5FE01E81B17
:104B6000F90BEA5FF84F3081202F332329F0319F72
:104B7000212D112411112F5F422F440F440F27FDC7
:104B800006C026FD08C0542F60E040E006C0642F38
:104B90005FEF4FEF02C060E05FEFCE010E94D122D5
:104BA0002196D1CFDF91CF911F910F91FF90EF9080
:104BB000DF90CF90BF90AF909F908F9008952F92ED
:104BC0003F924F925F926F927F928F929F92AF929D
:104BD000BF92CF92DF92EF92FF920F931F93CF93EA
:104BE000DF93CDB7DEB76C970FB6F894DEBF0FBE7C
:104BF000CDBF4C015A8349831F830E83FD82EC8213
:104C0000CB82FC01408D518D4115510509F0A1C0A9
:104C100080859185681779070CF05AC18285938544
:104C200049815A81481759070CF052C1D12CCB0148
:104C3000AB8156E0A59F800D911D11241816190611
:104C40000CF046C1C60133E0880F991F3A95E1F791
:104C5000E981FA818E0F9F1F181619060CF038C1D2
:104C6000D40157968C91811103C0203B08F02F5F2F
:104C7000B5E02B9F900111247D876C875B01212C6F
:104C8000F901E61BF70BF987E88729813A81285F4C
:104C90003F4F3B872A8735E0231641F0E885F985A9
:104CA000EA0DFB1DEA57F84F349001C0312C6980A2
:104CB0007A80230130FE12C0D401ED91FC91BB81BA
:104CC000B13031F40084F185E02D2E813F8116C092
:104CD0000288F389E02DEE80FF801AC0EE81FF810B
:104CE0002C813D81E217F307D1F0D401ED91FC91C5
:104CF000BB81B13041F40084F185E02DA301B50101
:104D0000C40109950CC00288F389E02DEC80FD8078
:104D100086019601A2016C857D85C40109953694B2
:104D2000EFEF6E1A7E0A4C0C5D1C2A853B856216DD
:104D3000730609F0BFCF23943FEFA31AB30A4C8543
:104D40005D854C0D5D1D5D874C8756E02512A3CF18
:104D5000BFC0FA013496E4912E1BFA013296859178
:104D60009491E7E02E9F800D911D1124FA01259169
:104D700034913B8B2A8BFC0125903490FC013296B8
:104D800034913887319644914A873196E491FC01F9
:104D9000359654915E87319684919B81923048F08C
:104DA000A52F550FBB0BE82F082E000CFF0BFD871E
:104DB000EC87FB81CF2ED12CAC9D9001AD9D300DA9
:104DC000BC9D300D1124A901460F571F598B488BEC
:104DD0001C82A12C5E85E52F550FFF0B3F01660E4F
:104DE000771E9885690F711DDB01AE0FBF1FB88F4D
:104DF000AF8BE981FA81E80FF11D87FDFA95FA8FF3
:104E0000E98FFA85AF1608F063C08A2D90E04C85D3
:104E10005D85480F591F4C9D90014D9D300D5C9D47
:104E2000300D112449815A81420F531F5F874E87ED
:104E3000488859887C8E6B8E5C8156195C8BA98D55
:104E4000BA8DA80FB91FBE8BAD8B8C89BB8D8B0F14
:104E5000EF89F88D2B8D3C8DE217F30799F1877060
:104E600041F4C1010196EA89FB89E20DF31DB4907A
:104E70001C01B7FE1EC0D401ED91FC91BB81B13085
:104E800061F40084F185E02D2E813F814D895E899A
:104E90006B8D7C8DC40109950CC00288F389E02DCF
:104EA000EE80FF80860196014E855F85B201C401C8
:104EB0000995BB0CEB8DFC8D3196FC8FEB8F4C0C68
:104EC0005D1CC3CFFC812885F20FFC83A39499CF8E
:104ED0006C960FB6F894DEBF0FBECDBFDF91CF91B9
:104EE0001F910F91FF90EF90DF90CF90BF90AF9008
:104EF0009F908F907F906F905F904F903F902F90FA
:104F00000895CF93DF93282F30E0F901EE58F84F42
:104F10008491F901E25AF84FD491F901E65BF84F18
:104F2000C491CC2391F081110E949524EC2FF0E0E4
:104F3000EE0FFF1FE05CF84FA591B491EC91ED23CB
:104F400081E090E021F480E002C080E090E0DF9119
:104F5000CF9108951F93CF93DF93282F30E0F9016D
:104F6000EE58F84F8491F901E25AF84FD491F901C3
:104F7000E65BF84FC491CC23C1F0162F81110E943B
:104F80009524EC2FF0E0EE0FFF1FEA5CF84FA5919F
:104F9000B4919FB7F894111104C08C91D095D82387
:104FA00002C0EC91DE2BDC939FBFDF91CF911F916C
:104FB0000895CF93DF9390E0FC01E25AF84F2491DB
:104FC000FC01E65BF84F8491882361F190E0880F43
:104FD000991FFC01E45DF84FC591D491FC01EA5C96
:104FE000F84FA591B491611109C09FB7F8948881D9
:104FF000209582238883EC912E230BC0623061F4CC
:105000009FB7F8948881322F309583238883EC9161
:105010002E2B2C939FBF06C08FB7F894E8812E2BC0
:1050200028838FBFDF91CF9108958E3008F08E5086
:105030008770806480937C0080917A008064809384
:105040007A0080917A0086FDFCCF809178002091D3
:10505000790090E0922B08958F929F92AF92BF9229
:10506000CF92DF92EF92FF926B017C010E94BE24EF
:105070004B015C01C114D104E104F104F1F00E9480
:10508000BE24DC01CB0188199909AA09BB09883E15
:105090009340A105B10570F321E0C21AD108E108DF
:1050A000F10888EE880E83E0981EA11CB11CC11483
:1050B000D104E104F10419F7DDCFFF90EF90DF9008
:1050C000CF90BF90AF909F908F900895019690934E
:1050D000FC068093FB06861797072CF45093FC067A
:1050E0004093FB060895481759072CF47093FC066B
:1050F0006093FB0608958617970741F48091FA069E
:105100008823B1F01092FA0689E00AC08417950747
:1051100079F48091FA06882359F01092FA0688E013
:105120000E94C40666E970E080E090E00C942C28B0
:1051300008952FB7F8946091FE067091FF06809154
:105140000007909101072FBF08952F923F924F9231
:105150005F926F927F928F929F92AF92BF92CF9207
:10516000DF92EF92FF920F931F93CF93DF9300D0C4
:1051700000D0CDB7DEB74C0169834A830E949928DD
:105180002B013C01C0909205E0909105EC0C0C2C99
:10519000000CDD08DC82CB820E2C000CFF0817010E
:1051A0002C183D088B819C818E159F0508F061C0ED
:1051B0009A81992341F00E94E32486E0A82E87E09B
:1051C000B82E86011EC0E091900587E08E9FF00109
:1051D0001124E657FA4F6485758586850FEF2FEF0A
:1051E00040E00E94560FE9CF9981992371F0EB813D
:1051F000FC81E017F10780F00F5F1F4FFFEFAF1A40
:10520000BF0A0E151F0580F30EC08B819C81081705
:10521000190790F7F501108240E050E060E0C80106
:105220000E94D122E9CF0E9495220E9499288B01E9
:105230009C010419150926093709C401B1010E940E
:105240009032CB01A0E0B0E0081719072A073B070E
:1052500030F48B819C8101979C838B8304C00E94D6
:1052600099282B013C01EB81FC813196FC83EB8377
:1052700099CF0F900F900F900F90DF91CF911F91CA
:105280000F91FF90EF90DF90CF90BF90AF909F90E5
:105290008F907F906F905F904F903F902F900895E8
:1052A0001F920F920FB60F9211242F933F938F935B
:1052B0009F93AF93BF938091FE069091FF06A091BC
:1052C0000007B09101073091FD0623E0230F2D3731
:1052D00020F40196A11DB11D05C026E8230F0296FA
:1052E000A11DB11D2093FD068093FE069093FF063D
:1052F000A0930007B09301078091020790910307E4
:10530000A0910407B09105070196A11DB11D8093DE
:10531000020790930307A0930407B0930507BF917A
:10532000AF919F918F913F912F910F900FBE0F9052
:105330001F90189580918D0690918E06009739F0F8
:10534000DC01ED91FC910088F189E02D099408952C
:10535000789484B5826084BD84B5816084BD85B550
:10536000826085BD85B5816085BD80916E0081605C
:1053700080936E0010928100809181008260809302
:105380008100809181008160809381008091800004
:105390008160809380008091B10084608093B1002F
:1053A0008091B00081608093B00080917A00846029
:1053B00080937A0080917A00826080937A00809155
:1053C0007A00816080937A0080917A00806880936F
:1053D0007A001092C1000E946D09CFEFD0E0222424
:1053E0002394312C42E0642E712C5EE0E52EF12CEA
:1053F000A89586EC96E00E94ED2087EA96E00E9450
:10540000ED20C0909104D090920421E0C216D10406
:1054100009F0B8C280918F0490919004892B09F013
:105420004AC00E94380F8091900506E1809F002DB0
:10543000112410E061E070E080E090E00E94BB1F6A
:10544000C8014196860F0E94C406D0929004C09273
:105450008F048091920560919105680F8F5F0E9483
:105460002D1084E1809304010E9499286093F50631
:105470007093F6068093F7069093F80610928E04C8
:105480000E94301860E070E0809104010E94E616EE
:1054900060E082EC93E00E94380E0E947E066091EC
:1054A0008B0670918C0680E090E00E942C2881E0B1
:1054B0000E94681140C200918C0410918D04063046
:1054C000110509F041C01091900587E0189FF00187
:1054D0001124ED56FA4F908182812181209383041B
:1054E000909382048093840468E070E080E090E010
:1054F0000E94BB1F862F96E1199F800D11248E5E9E
:105500000E94C4068CE291E00E9458108091040130
:1055100081508093040160E070E00E94E6161091D3
:105520000401812F0E94FC0E111109C0F0928D041C
:10553000E0928C0410928B0410928A046CC1109239
:105540008D0410928C04F7C109301105A1F510915A
:10555000900527E0129FF0011124ED56FA4F90813B
:105560008281218120938304909382048093840418
:1055700068E070E080E090E00E94BB1F862F96E11B
:10558000199F800D11248E5E0E94C40688EC90E065
:105590000E9458108091040181508093040160E0C2
:1055A00070E00E94E61610910401812F0E94FC0E0B
:1055B0001111C1C1BBCF0730110509F0B5C0109161
:1055C000900527E0129FF0011124EA56FA4F9081CE
:1055D00082812181209383049093820480938404A8
:1055E00061E070E080E090E00E94BB1F862F96E1B2
:1055F000199F800D1124865E0E94C40680910401CB
:1056000081508093040100E010E060919105E5E095
:105610006E9F90011124809192050217130708F0E4
:105620005DC0C82ED12C209192058091910590E00B
:10563000820F911DC816D906E0F5C801B6010E9477
:1056400090329C01892B39F440918204509183045B
:105650006091840427C08091830490E0B9010E9486
:1056600090326F3F710519F010F06FEF70E0E62F88
:105670008091820490E0B9010E9490326F3F7105E1
:1056800019F010F06FEF70E0462F8091840490E0E5
:10569000B9010E9490326F3F710519F010F06FEF61
:1056A00070E05E2FC6010E94D122FFEFCF1ADF0A01
:1056B000BACF0E9495226091910525E0629FB001CA
:1056C000112480918706909188060E94903280E094
:1056D00090E00E942C280F5F1F4F97CF9FEF980FED
:1056E000690F0E942D1010910401812F0E94FC0E61
:1056F00060E070E0812F0E94E61680910401811124
:105700000EC0F0928D04E0928C0460E08AEC93E08D
:105710000E94380E30928B0420928A040CC1309281
:105720008D0420928C0407C10830110509F060C077
:105730001091900587E0189FF0011124ED56FA4F63
:1057400090818281218120938304909382048093AD
:10575000840461E070E080E090E00E94BB1F862F2F
:1057600096E1199F800D11248D5D0E94C406209141
:105770000401822F90E0853091052CF04A972CF49B
:105780008BEF820F03C080E001C084E180930401AD
:105790000E9499284B015C012AE0AB01BC0188EA18
:1057A00095E00E94382067E973E088EA95E00E945E
:1057B00023202FE1D22E0E949928681579058A05A9
:1057C0009B0508F4A5C20E949928AB01BC014819A9
:1057D00059096A097B098091830690918406A0E0AB
:1057E000B0E084179507A607B70708F0BBC290C2C0
:1057F0000A301105D9F40E94E3240E949522809179
:10580000040181110EC070928B0460928A04F092A0
:105810008D04E0928C0460E08AEC93E00E94380EE4
:105820008AC010938D0400938C0485C00B30110541
:1058300041F56091910500919205060F669570E023
:1058400080E090E00E94BB1FD62E109192056091DF
:105850009105669570E080E090E00E94BB1F0D19F5
:10586000212F260FE091900587E0E89FF001112499
:10587000E657FA4F64857585868541E00E94560F8C
:105880005AC00531110549F480918A0490918B0426
:1058900090938D0480938C044EC00E30110539F422
:1058A00060E070E0809104010E94E61644C001317E
:1058B000110519F40E947E063EC000311105D9F58C
:1058C00080910401282F30E02431310514F48F5FDA
:1058D00001C084E18093040160E070E00E94E6165C
:1058E00010910401812F0E94FC0E64E670E080E0BC
:1058F00090E00E942C281431F1F48091900506E18B
:10590000809F002D112410E061E070E080E090E0C5
:105910000E94BB1FC8014E96860F0E94C40664EF0A
:1059200071E080E090E00E942C28EFE0F0E0F0933E
:105930008D04E0938C040E9499280091F506109143
:10594000F6062091F7063091F80606171707280784
:10595000390708F0DAC10E9499280091F5061091E4
:10596000F6062091F7063091F806DC01CB01801B8A
:10597000910BA20BB30B893B9B40A105B10508F02D
:1059800022C3C3C122E0C216D10401F580918F0465
:1059900090919004892B09F0B8C1D0929004C092E4
:1059A0008F0484E18093040183E00E94C40668E5CB
:1059B00072E080E090E00E942C288FEF9FEF9093A0
:1059C0008904809388040E9419129FC1C114D104D4
:1059D00009F08CC080918F04909190040197F1F4AC
:1059E0000E9499286093E5067093E6068093E70687
:1059F0009093E8061092900410928F0410928D04F8
:105A000010928C040E94891864EF71E080E090E0AD
:105A10000E942C28109286040E94400F80918F04CF
:105A200090919004029741F50E9448090E948918BC
:105A30001092900410928F040E9499286093E506BA
:105A40007093E6068093E7069093E8066FEF8FEF7A
:105A50000E942D109091900586E1989F802D112431
:105A60000E9408120E94C406109286046CE271E043
:105A700080E090E00E942C280E9499280091E50681
:105A80001091E6062091E7063091E806DC01CB0193
:105A9000801B910BA20BB30B813E9349A440B1052F
:105AA00008F433C183E090E09093920480939104D2
:105AB0001092900410928F0481E00E94C40664EF5B
:105AC00071E080E090E00E942C2881E00E94C406F2
:105AD00064EF71E080E090E00E942C2881E00E9459
